:020000040800F2
:1000000068060020890100087D0A00082F07000803
:100010004D0800086B0200083912000800000000BB
:10002000000000000000000000000000DD0B0008E0
:10003000F703000800000000E50A0008890C00082A
:10004000A3010008A3010008A3010008A301000800
:10005000A3010008A30100082D050008A301000862
:10006000A3010008A3010008A3010008A3010008E0
:10007000A3010008A3010008A3010008A3010008D0
:10008000A3010008A3010008A3010008A3010008C0
:10009000A3010008A3010008A3010008A3010008B0
:1000A000A3010008A3010008A3010008A3010008A0
:1000B000A3010008A3010008A3010008A301000890
:1000C000A3010008A3010008A3010008A301000880
:1000D000A3010008A3010008A3010008A301000870
:1000E000A3010008A3010008A301000800F002F822
:1000F00000F03AF80AA090E8000C82448344AAF188
:100100000107DA4501D100F02FF8AFF2090EBAE885
:100110000F0013F0010F18BFFB1A43F0010318473B
:10012000DC120000FC120000103A24BF78C878C12D
:10013000FAD8520724BF30C830C144BF04680C60ED
:10014000704700000023002400250026103A28BF35
:1001500078C1FBD8520728BF30C148BF0B60704739
:100160001FB51FBD10B510BD00F031F81146FFF7E7
:10017000F7FF01F0E3F800F04FF803B4FFF7F2FFE8
:1001800003BC00F057F800000948804709480047C1
:10019000FEE7FEE7FEE7FEE7FEE7FEE7FEE7FEE737
:1001A000FEE7FEE704480549054A064B7047000094
:1001B0008D0C0008ED000008680000206806002093
:1001C000680200206802002070477047704775463B
:1001D00000F02CF8AE4605006946534620F00700B3
:1001E000854618B020B5FFF7DDFFBDE820404FF091
:1001F00000064FF000074FF000084FF0000B21F011
:100200000701AC46ACE8C009ACE8C009ACE8C009DD
:10021000ACE8C0098D46704710B50446AFF30080C6
:100220002046BDE81040FFF7A8BF00000048704717
:100230000400002001491820ABBEFEE726000200A2
:10024000704710B50121032000F04EFC012140F65B
:100250003D0000F055FC00F0FBFA00F0CDF800F096
:1002600077F8BDE8104000F057BCFEE710B5002459
:1002700004F10800C0B2002100F0A6F8641CE4B24A
:10028000082CF5D310BD00002DE9F04100F078FAFC
:100290006F2000F04DFA00F0ABFA2B4F0024012044
:1002A000C7F89C01D7F81C11284E254680466006E9
:1002B000040E4021304600F038FA022000F0C9FF59
:1002C000C7F89C81D7F81C0108B1641CE4B2402136
:1002D000304600F028FA022000F0BBFF6D1CEDB2A2
:1002E000082DE4D300F06CFA403C102C2AD2DFE851
:1002F00004F01F1513111D0F0D0B23270825211BBB
:1003000019170020BDE8F0810120FBE70220F9E782
:100310000320F7E70420F5E70520F3E70620F1E7DF
:100320000720EFE70820EDE70920EBE70A20E9E7DF
:100330000B20E7E70C20E5E70D20E3E70E20E1E7DF
:100340000F20DFE71020DDE700802142000C014094
:1003500038B514208DF8030003208DF80200C0206A
:100360000D4CADF800006946204600F05BF94021D5
:10037000204600F0DAF98021204600F0D6F901206D
:1003800000F05BFF0021072000F01EF8032104208D
:1003900000F01AF838BD0000000C0140C0F10B005D
:1003A000C21700EB527222F00702801A054B01F0CF
:1003B0000F0201F080019A5C08301144C9B2C0B24A
:1003C00000F002B8EC13000870B50D46044600F0CA
:1003D000D7F904F00F00602141EA400000F0A8F9CD
:1003E00000F006FA284600F0A3F900F001FABDE893
:1003F000704000F0E5B970472DE9F8430121474806
:1004000000F05EF904248DF80340A002ADF800006E
:10041000434F03258DF802506946384600F002F933
:100420008DF803406603ADF800608DF80250694610
:10043000384600F0F7F88DF803400820ADF80000CA
:10044000DFF8E0808DF802506946404600F0EAF897
:100450008DF803401020ADF800008DF80250694679
:10046000404600F0DFF88DF803402020ADF8000092
:100470008DF802506946404600F0D4F88DF80340EC
:10048000A001ADF800008DF802506946404600F02A
:10049000C9F88DF80340E001ADF800008DF8025076
:1004A0006946404600F0BEF88DF80340E002ADF822
:1004B00000001D4F8DF802506946384600F0B2F832
:1004C0008DF803402003ADF800008DF80250694616
:1004D000384600F0A7F88DF80340ADF800608DF8BD
:1004E00002506946384600F09DF88DF803406002DE
:1004F000ADF800008DF802506946404600F092F8D1
:100500008DF803402002ADF800008DF802506946D6
:10051000404600F087F8BDE8F88300000002300094
:1005200000080140000C01400010014010B50120FE
:1005300000F01CF8012811D184070021204600F0AA
:1005400041FC0021204600F0FFFD0121204600F083
:1005500039FCBDE81040012000F002B810BD0000D9
:10056000014908607047000014040140064A014632
:1005700000201268044B0A4014331B680B4202D05F
:10058000002A00D0012070470004014030B51A4A0B
:100590008379016853B313688B431360111D0B6893
:1005A0000468A3430B60017911440B68046823437A
:1005B0000B60114B083319680468A14319601C1DB6
:1005C00021680568A94321604179102905D01144AB
:1005D0000A68006802430A6030BD19680268114366
:1005E0001960216800680143216030BD0079104422
:1005F00002688A43026030BD0004014010B58A07DA
:1006000021F003040649120F21440F238C68934004
:100610009C438C608B68904003438B6010BD00004E
:1006200000000140F0B5CC78002204F00F03E4068E
:1006300001D58C7823430C784FF00F0C14F0FF0F8A
:100640004FF0010E1BD005680E880EFA02F426400A
:10065000A64210D196000CFA06F725EA070703FA1E
:1006600006F5CE783D43282E02D0482E02D002E077
:10067000446100E00461521C082AE5D305600A8841
:10068000FF2A1CD94468002202F108060EFA06F57A
:100690000E882E40AE420ED196000CFA06F7BC43EF
:1006A00003FA06F7CE783C43282E00D14561CE7878
:1006B000482E00D10561521C082AE5D34460F0BDE4
:1006C000F0B5144C002801DAE36900E06368450DD9
:1006D0002E0185B2C0F30157B540C0F30342032F8A
:1006E00005D0C6020AD503269640B34307E023F09F
:1006F0007062636823F07063636002E0AB4343F0B1
:10070000706201B12A43002801DAE261F0BD626043
:10071000F0BD0000000001400246002092680A423D
:1007200000D0012070474161704701617047FEE7CA
:1007300070B5124E0546002428064FF08001304661
:1007400002D5FFF7F2FF01E0FFF7EDFF022000F016
:1007500080FD40213046FFF7E8FF022000F079FDE0
:1007600040213046FFF7DFFF022000F072FD6806EF
:10077000641C050EE4B2082CDED370BD000C0140F1
:1007800010B50E4C80212046FFF7CFFF40212046B8
:10079000FFF7CBFF022000F05CFD80212046FFF731
:1007A000C2FF022000F055FD40212046FFF7BBFFAD
:1007B000BDE81040022000F04CBD0000000C0140DC
:1007C00010B50A4C80212046FFF7ADFF402120469E
:1007D000FFF7ABFF022000F03CFD80212046FFF731
:1007E000A4FFBDE81040022000F033BD000C014022
:1007F0002DE9F041134D0126C5F89C61D5F81C0187
:10080000022000F026FD104F40213846FFF78DFFF3
:10081000022000F01EFD0024C5F89C61D5F81C01E3
:1008200030B1022000F015FD641CE4B2FA2CF3D3C1
:1008300040213846FFF777FFBDE8F041022000F085
:1008400008BD000000802142000C0140FEE70000CE
:100850002DE9F04188B001218348FFF731FF1025D1
:100860008DF803502E02DFF80482ADF800600324F7
:100870008DF8024069464046FFF7D4FE31464046B7
:10088000FFF753FF8DF803506E02ADF800608DF84E
:10089000024069464046FFF7C5FE31464046FFF735
:1008A00044FF8DF80350AE02ADF800608DF80240B1
:1008B00069464046FFF7B6FE31464046FFF735FF32
:1008C0008DF80350ED02ADF800508DF802406946F6
:1008D0004046FFF7A7FE29464046FFF726FF402087
:1008E000ADF800001825624F8DF803508DF80240D6
:1008F00069463846FFF796FE8020ADF800008DF877
:1009000003508DF8024069463846FFF78BFE0126FA
:10091000ADF800608DF803508DF8024069464046FE
:10092000FFF780FE0220ADF800008DF803508DF82F
:10093000024069464046FFF775FE3002ADF8000000
:100940008DF803508DF8024069463846FFF76AFE7D
:100950007002ADF800008DF803508DF80240694632
:100960003846FFF75FFEB002ADF800008DF8035087
:100970008DF8024069463846FFF754FEF002ADF8A4
:1009800000008DF803508DF8024069463846FFF7A5
:1009900049FE40F2E7300024ADF81800354DADF8BF
:1009A0001440ADF81A40ADF8164005A9284600F0ED
:1009B000F5FB314F05A9384600F0F0FB7020ADF88B
:1009C0000400ADF80660ADF80C4001A9284600F01F
:1009D000A5FA01A9284600F0E7FA01A9284600F087
:1009E0002DFB01A9284600F06DFB01A9384600F057
:1009F00095FA01A9384600F0D7FA01A9384600F067
:100A00001DFB01A9384600F05DFB0821284600F0D7
:100A1000C5FA0821284600F007FB0821284600F007
:100A20004BFB0821284600F07FFB0821384600F0E8
:100A3000B5FA0821384600F0F7FA0821384600F0E8
:100A40003BFB0821384600F06FFB0121284600F0EF
:100A5000C3F90121284600F0B5F90121384600F01C
:100A6000B1F908B0BDE8F08140001600000C01406B
:100A700000080140002C01400004004070470000C5
:100A800030B50F23C27801780125F2B1144A1268FB
:100A900001F1E02102F4E062C2F5E062120AC2F163
:100AA0000404D3404278A24084781C4014432201BD
:100AB00081F80024007800F01F018D40400980007B
:100AC00000F1E020C0F8005130BD01F01F0085406A
:100AD0004809800000F1E020C0F8805130BD0000DE
:100AE0000CED00E070470000044A0029D16901D0F4
:100AF000014300E08143D1617047000000100240D3
:100B0000044A0029916901D0014300E081439161C9
:100B10007047000000100240F0B501218BB008467C
:100B2000FFF7E2FF48208DF8270003208DF826000C
:100B30000720ADF8240009A92748FFF773FD00211D
:100B40000846FFF75BFD00248DF81C4008260125B0
:100B50008DF81D608DF81E5006A80695FFF716FD4E
:100B60008DF823508DF821508DF8224006208DF805
:100B7000200008A8FFF784FFADF812404FF6FF7081
:100B8000ADF81000ADF80E404720ADF80C00AF07EF
:100B90008DF8144003A9384600F000FB0220ADF8A0
:100BA0000200ADF80640ADF80840ADF80450ADF8CD
:100BB00000406946384600F01BF90420ADF80000FB
:100BC0006946384600F014F9ADF8006069463846C9
:100BD00000F00EF90BB0F0BD0008014070470000B6
:100BE0000CB50022264800920192016841F4803140
:100BF00001604FF4A063016801F400310191009994
:100C0000491C0091019911B900999942F3D10168E9
:100C1000890333D5012101911A490A6842F0100273
:100C20000A600A6822F003020A600A6842F00202BF
:100C30000A604168416041684160416841F48061F7
:100C40004160416821F47C114160416841F4E81140
:100C50004160016841F08071016001688901FCD543
:100C6000416821F003014160416841F002014160A7
:100C70004168C1F381010229FAD10CBD01920CBD7A
:100C80000010024000200240704700000F4810B5DD
:100C9000016841F00101016041680D4A1140416065
:100CA00001680C4A11400160016821F48021016053
:100CB000416821F4FE0141604FF41F018160FFF79C
:100CC0008FFF05494FF00060086010BD0010024022
:100CD0000000FFF8FFFFF6FE08ED00E070B5048CA1
:100CE00024F001040484058B048C4FF6FF7606EA99
:100CF0000313134325F0F3050E4A2B4390420ED005
:100D00000D4A90420BD0B0F1804F08D00B4A904270
:100D100005D00B4A904202D00A4A904202D124F0F8
:100D2000020201E024F00A020A4342F001010383B7
:100D3000018470BD002C01400034014000040040DB
:100D400000080040000C0040F0B5048C24F01004B2
:100D50000484078B048C4FF6FF7527F4734705EA6C
:100D600003333B4305EA02221A43114B05EA0116FD
:100D700098420ED00F4B98420BD0B0F1804F08D064
:100D80000D4B984205D00D4B984202D00C4B984227
:100D900005D124F02001314341F0100104E024F09A
:100DA000A0030B4343F0100102830184F0BD000057
:100DB000002C0140003401400004004000080040C5
:100DC000000C00400029018802D041F0010101E03F
:100DD00021F0010101807047002930F8441F02D042
:100DE00041F4004101E0C1F30E01018070470000B1
:100DF0002DE9F84F0D4604460888434FDFF80CC133
:100E0000DFF80C81DFF80C914988AA882B894FF014
:100E1000804A48B3042830D04FF6FF76082893461E
:100E200034D0208C9E4620F480502084A38B208CCC
:100E300006EA0132009223F4734306EA0B221A43B6
:100E400006EA0E331343BC420AD0644508D0544529
:100E500006D0444504D04C4502D02F4A944245D197
:100E600020F40050009943E02046FFF737FFE9885F
:100E70002046BDE8F84F00F069B92046FFF764FF4F
:100E8000E9882046BDE8F84F00F068B9208C20F4CE
:100E900080702084B4F81CE0208C06EA031306EA74
:100EA00001222EF0F30E43EA0B0343EA0E030092F5
:100EB000BC420AD0644508D0544506D0444504D00D
:100EC0004C4502D0144A944203D120F4007000999A
:100ED00001E020F42060084340F48070A383208464
:100EE000E9882046BDE8F84F00F044B920F40240FC
:100EF000084340F48050A3832084E9882046BDE85D
:100F0000F84F00F03FB90000002C014000340140D0
:100F10000004004000080040000C004030B5028C86
:100F200022F001020284028C8388048B22F00202E8
:100F300024F073050C882C430D8915434A882A43F5
:100F4000114DA8420BD0114DA84208D0104DA84217
:100F500005D0104DA84202D00F4DA8420DD122F06D
:100F600008054A8923F440732A4322F004058A883D
:100F70002A438D891D43CB892B4383800483C988F1
:100F80008186028430BD0000002C01400034014005
:100F9000004001400044014000480140028B22F023
:100FA00008020A430283704770B5028C22F01002D7
:100FB0000284028C8388048B0D8824F4E6464FF665
:100FC000FF7404EA052535430E8922F0200204EA65
:100FD000061616434A8804EA02123243104EB04203
:100FE00002D0104EB04215D122F080064A8923F477
:100FF000406304EA0212324322F040068A8804EA7F
:10100000021232438E8904EA86061E43CB8904EA23
:101010008303334383800583C9880187028470BDBD
:10102000002C014000340140028B4FF6FF7322F484
:10103000006203EA012111430183704770B5028CFD
:1010400022F480720284028C8388848B0D8824F0C1
:10105000730425430E894FF6FF7422F4007204EAEC
:10106000062616434A8804EA02223243104EB04252
:1010700002D0104EB04215D122F400664A8923F402
:10108000405304EA0222324322F480668A8804EA4A
:10109000022232438E8904EA06161E43CB8904EAF3
:1010A0000313334383808583C9888187028470BD9D
:1010B000002C014000340140828B22F008020A43D8
:1010C0008283704770B5028C22F480520284058CB2
:1010D0008288838B0C8823F4E6464FF6FF7303EA7D
:1010E0000424344325F400560D8903EA05353543BD
:1010F0004E8803EA06362E43094DA84202D0094D18
:10110000A84205D122F480458A8903EA82122A4343
:1011100082808483C988A0F84010068470BD0000D6
:10112000002C014000340140828B4FF6FF7322F403
:10113000006203EA01211143818370478186704771
:10114000018770478187704781847047028B22F046
:101150000C020283028B0A4302837047028B22F443
:1011600040620283028B4FF6FF7303EA01210A43B8
:1011700002837047828B22F00C028283828B0A43A7
:1011800082837047828B22F440628283828B4FF687
:10119000FF7303EA01210A438283704730B5028856
:1011A0001B4C1C4DA0420DD0A8420BD0B0F1804F7B
:1011B00008D0194B984205D0184B984202D0184BD2
:1011C000984203D122F070034A881A43154B984283
:1011D00006D0154B984203D022F44073CA881A43B4
:1011E00002808A8882850A880285A0420AD0A842A5
:1011F00008D00E4A904205D00D4A904202D00D4AC6
:10120000904201D1097A01860121818230BD00001E
:10121000002C014000340140000400400008004060
:10122000000C00400010004000140040004001404D
:101230000044014000480140FEE710B503464FF46A
:101240007A7402E0204600F004F85B1E9BB2F9D2EB
:1012500010BD00EBC000C1004FF0E0204161002252
:101260008261052101610169C903FCD58261042104
:10127000016170472DE9F0470C4608A9154691E831
:101280008007C1B21E460020FFF788F8E1B20120B6
:10129000FFF784F8E9B20220FFF780F8F1B20320EB
:1012A000FFF77CF8F9B20420FFF778F808F0FF01A7
:1012B0000520FFF773F809F0FF010620FFF76EF82D
:1012C0000AF0FF01BDE8F0470720FFF767B800000C
:1012D00070B5174D04464FF480512846FFF71CFAAD
:1012E00020604FF400412846FFF716FA114D606068
:1012F00008212846FFF710FAA06010212846FFF7C2
:101300000BFAE06020212846FFF706FA2061A915B4
:101310002846FFF701FA606169152846FFF7FCF9D6
:10132000A06169140448FFF7F7F9E06170BD00009F
:1013300000080140000C0140001001408CB0FEF795
:1013400080FF1420FFF779FFFEF790FF264C4FF047
:1013500080454FF47A760A20FFF76FFF04A8FFF765
:10136000B7FF0A20FFF769FF0DF1200C9CE80F0082
:101370008DE80F000DF1100C9CE80F00FFF77AFFCD
:101380000A20FFF75AFFFEF77FFF20600A20FFF7D1
:1013900054FF64212846FFF7D1FE3046FFF74DFF8A
:1013A000C8212846FFF7CAFE3046FFF746FF6421F2
:1013B0002846FFF7C5FE3046FFF73FFFC821284605
:1013C000FFF7BEFE3046FFF738FF64212846FFF7DF
:1013D000B9FE3046FFF731FFC8212846FFF7B2FEBD
:1013E0003046FFF72AFFB6E7000000203F065B4FBC
:1013F000666D7D077F6F777C395E79711C140008FC
:10140000000000200400000028010008201400084B
:1014100004000020640600004401000800000000F1
:04000005080000ED02
:00000001FF
