:020000040800F2
:100000006806002089010008F1090008A30600081D
:10001000C10700086702000859140008000000002A
:10002000000000000000000000000000350D000886
:10003000FB03000800000000150A00080511000875
:10004000A3010008A3010008A3010008A301000800
:10005000A3010008A301000831050008A30100085E
:10006000A3010008A3010008A3010008A3010008E0
:10007000A3010008A3010008A3010008A3010008D0
:10008000A3010008A3010008A3010008A3010008C0
:10009000A3010008A3010008A3010008A3010008B0
:1000A000A3010008A3010008A3010008A3010008A0
:1000B000A3010008A3010008A3010008A301000890
:1000C000A3010008A3010008A3010008A301000880
:1000D000A3010008A3010008A3010008A301000870
:1000E000A3010008A3010008A301000800F002F822
:1000F00000F03AF80AA090E8000C82448344AAF188
:100100000107DA4501D100F02FF8AFF2090EBAE885
:100110000F0013F0010F18BFFB1A43F0010318473B
:10012000C01F0000E01F0000103A24BF78C878C14B
:10013000FAD8520724BF30C830C144BF04680C60ED
:10014000704700000023002400250026103A28BF35
:1001500078C1FBD8520728BF30C148BF0B60704739
:100160001FB51FBD10B510BD00F031F81146FFF7E7
:10017000F7FF01F0C5FB00F04FF803B4FFF7F2FF03
:1001800003BC00F057F800000948804709480047C1
:10019000FEE7FEE7FEE7FEE7FEE7FEE7FEE7FEE737
:1001A000FEE7FEE704480549054A064B7047000094
:1001B00009110008ED000008680000206806002012
:1001C000680200206802002070477047704775463B
:1001D00000F02CF8AE4605006946534620F00700B3
:1001E000854618B020B5FFF7DDFFBDE820404FF091
:1001F00000064FF000074FF000084FF0000B21F011
:100200000701AC46ACE8C009ACE8C009ACE8C009DD
:10021000ACE8C0098D46704710B50446AFF30080C6
:100220002046BDE81040FFF7A8BF00000048704717
:100230000400002001491820ABBEFEE726000200A2
:10024000704710B50121032000F0EAFB012140F6C0
:100250003D0000F0F1FB00F0B5FA00F0CFF8BDE88A
:10026000104000F077B8FEE710B5002404F1080054
:10027000C0B2002100F0AAF8641CE4B2082CF5D347
:1002800010BD00002DE9F04100F034FA6F2000F0BD
:1002900009FA00F067FA2C4800240126C0F89C6196
:1002A000D0F81C11294F254680466006040E4021D7
:1002B000384600F0F0F9022001F014F9C8F89C610A
:1002C000D8F81C0108B1641CE4B24021384600F0A3
:1002D000E0F9022001F006F96D1CEDB2082DE4D31F
:1002E00000F028FA1A48403C102C0FD2DFE804F046
:1002F000211715131F110C0A25290827231D1B1967
:10030000002102E0067001E0022101700078BDE8E2
:10031000F0810321F9E70421F7E70521F5E706213C
:10032000F3E70721F1E70821EFE70921EDE70A21CB
:10033000EBE70B21E9E70C21E7E70D21E5E70E21CB
:10034000E3E70F21E1E7000000802142000C0140BB
:100350000000002038B514208DF8030003208DF82C
:100360000200C0200D4CADF800006946204600F0A8
:100370000FF94021204600F08EF98021204600F040
:100380008AF9012001F096F80021072000F01EF8FC
:100390000321042000F01AF838BD0000000C0140D1
:1003A000C0F10B00C21700EB527222F00702801A54
:1003B000054B01F00F0201F080019A5C08301144F6
:1003C000C9B2C0B200F002B8D020000870B50D4626
:1003D000044600F08FF904F00F00602141EA40006C
:1003E00000F060F900F0BEF9284600F05BF900F07B
:1003F000B9F9BDE8704000F09DB970472DE9F843A8
:100400000121474800F012F904248DF80340A002AE
:10041000ADF80000434F03258DF802506946384679
:1004200000F0B6F88DF803406603ADF800608DF873
:1004300002506946384600F0ABF88DF803400820BA
:10044000ADF80000DFF8E0808DF8025069464046C4
:1004500000F09EF88DF803401020ADF800008DF8F4
:1004600002506946404600F093F88DF80340202082
:10047000ADF800008DF802506946404600F088F85B
:100480008DF80340A001ADF800008DF802506946D8
:10049000404600F07DF88DF80340E001ADF8000023
:1004A0008DF802506946404600F072F88DF803401E
:1004B000E002ADF800001D4F8DF802506946384645
:1004C00000F066F88DF803402003ADF800008DF8C9
:1004D00002506946384600F05BF88DF80340ADF8ED
:1004E00000608DF802506946384600F051F88DF8EA
:1004F00003406002ADF800008DF8025069464046A6
:1005000000F046F88DF803402002ADF800008DF8A9
:1005100002506946404600F03BF8BDE8F883000011
:100520000002300000080140000C014000100140B2
:1005300010B5012000F01CF8012811D1840700211A
:10054000204600F009FE0021204600F034FF012182
:10055000204600F001FEBDE81040012000F002B886
:1005600010BD0000014908607047000014040140FC
:10057000064A014600201268044B0A4014331B68E7
:100580000B4202D0002A00D0012070470004014035
:10059000F0B5CC78002204F00F03E40601D58C7886
:1005A00023430C784FF00F0C14F0FF0F4FF0010EA7
:1005B0001BD005680E880EFA02F42640A64210D120
:1005C00096000CFA06F725EA070703FA06F5CE7837
:1005D0003D43282E02D0482E02D002E0446100E0C4
:1005E0000461521C082AE5D305600A88FF2A1CD939
:1005F0004468002202F108060EFA06F50E882E4025
:10060000AE420ED196000CFA06F7BC4303FA06F789
:10061000CE783C43282E00D14561CE78482E00D1BB
:100620000561521C082AE5D34460F0BDF0B5144CB6
:10063000002801DAE36900E06368450D2E0185B208
:10064000C0F30157B540C0F30342032F05D0C602E3
:100650000AD503269640B34307E023F0706263682F
:1006600023F07063636002E0AB4343F0706201B15A
:100670002A43002801DAE261F0BD6260F0BD0000AB
:10068000000001400246002092680A4200D001208A
:1006900070474161704701617047BD21880700F0D4
:1006A00083BEFEE770B5124E0546002428064FF0C3
:1006B0008001304602D5FFF7EEFF01E0FFF7E9FFCA
:1006C000022000F00FFF40213046FFF7E4FF022038
:1006D00000F008FF40213046FFF7DBFF022000F06A
:1006E00001FF6806641C050EE4B2082CDED370BD61
:1006F000000C014010B50E4C80212046FFF7CBFFC7
:1007000040212046FFF7C7FF022000F0EBFE8021CA
:100710002046FFF7BEFF022000F0E4FE4021204605
:10072000FFF7B7FFBDE81040022000F0DBBE00007D
:10073000000C014010B50A4C80212046FFF7A9FFAC
:1007400040212046FFF7A7FF022000F0CBFE8021CA
:100750002046FFF7A0FFBDE81040022000F0C2BE17
:10076000000C01402DE9F041134D0126C5F89C61B4
:10077000D5F81C01022000F0B5FE104F402138468C
:10078000FFF789FF022000F0ADFE0024C5F89C6150
:10079000D5F81C0130B1022000F0A4FE641CE4B2C4
:1007A000FA2CF3D340213846FFF773FFBDE8F04140
:1007B000022000F097BE000000802142000C0140A2
:1007C000FEE700002DE9F04188B001218348FFF7E2
:1007D0002DFF10258DF803502E02DFF80482ADF8AE
:1007E000006003248DF8024069464046FFF7D0FEC2
:1007F00031464046FFF74FFF8DF803506E02ADF8CB
:1008000000608DF8024069464046FFF7C1FE314660
:100810004046FFF740FF8DF80350AE02ADF8006090
:100820008DF8024069464046FFF7B2FE3146404629
:10083000FFF731FF8DF80350ED02ADF800508DF851
:10084000024069464046FFF7A3FE29464046FFF7AF
:1008500022FF4020ADF800001825624F8DF80350AC
:100860008DF8024069463846FFF792FE8020ADF8C9
:1008700000008DF803508DF8024069463846FFF7B6
:1008800087FE0126ADF800608DF803508DF8024018
:1008900069464046FFF77CFE0220ADF800008DF867
:1008A00003508DF8024069464046FFF771FE300262
:1008B000ADF800008DF803508DF8024069463846C7
:1008C000FFF766FE7002ADF800008DF803508DF85A
:1008D000024069463846FFF75BFEB002ADF8000003
:1008E0008DF803508DF8024069463846FFF750FEF8
:1008F000F002ADF800008DF803508DF80240694613
:100900003846FFF745FE40F2E7300024ADF8180006
:10091000354DADF81440ADF81A40ADF8164005A9B4
:10092000284600F04BFD314F05A9384600F046FD42
:100930007020ADF80400ADF80660ADF80C4001A9D8
:10094000284600F01FFC01A9284600F061FC01A91F
:10095000284600F0A7FC01A9284600F0E7FC01A901
:10096000384600F00FFC01A9384600F051FC01A9FF
:10097000384600F097FC01A9384600F0D7FC082162
:10098000284600F03FFC0821284600F081FC0821A1
:10099000284600F0C5FC0821284600F0F9FC082193
:1009A000384600F02FFC0821384600F071FC082181
:1009B000384600F0B5FC0821384600F0E9FC01217A
:1009C000284600F0D3FB0121284600F0C5FB012199
:1009D000384600F0C1FB08B0BDE8F08140001600C9
:1009E000000C014000080140002C014000040040C0
:1009F0007047F0B50DF1140C9CE8F00030B929B93E
:100A000022B91BB914B90DB906B90FB10020F0BD58
:100A10000120F0BD7047B421080700F0C5BC0000FC
:100A2000044A0029D16901D0014300E08143D1612A
:100A30007047000000100240044A0029916901D06B
:100A4000014300E0814391617047000000100240C3
:100A50008CB001210020FFF7A3FCFFF71EFE4FF42E
:100A60007A7000F027FD00F0B1FF01210720FFF7A9
:100A700097FC782000F078FF00F03EFE012000F0A7
:100A800025FD04A800F002FF08980128F9D1099873
:100A90000128F6D102210720FFF782FC782000F020
:100AA00063FF00F085FE4FF4167000F003FD04A80C
:100AB00000F0ECFE05980128F9D106980128F6D13E
:100AC000782000F051FF04A800F0E0FE0DF1200CAA
:100AD0009CE80F008DE80F000DF1100C9CE80F0052
:100AE000FFF787FF38B300F075FF782000F082FF32
:100AF00040F24C4000F0DEFC00F06CFF4FF4FA7462
:100B0000204600F0D7FC00F0F7FE204600F0D2FCB3
:100B1000FFF781FF204600F0CDFC782000F06AFF4F
:100B200040F2DC5000F0C6FC782000F01DFF0220EF
:100B300000F0CCFC44E00DF1200C9CE80F008DE8A7
:100B40000F000DF1100C9CE80F0000F092FC10B1AA
:100B5000782102200EE00DF1200C9CE80F008DE8BA
:100B60000F000DF1100C9CE80F0000F097FC20B175
:100B70007821032000F044FDA5E70DF1200C9CE84E
:100B80000F008DE80F000DF1100C9CE80F0000F035
:100B900064FC10B1782102200FE00DF1200C9CE8DC
:100BA0000F008DE80F000DF1100C9CE80F0000F015
:100BB0006CFC002887D07821032000F0A5FC82E798
:100BC00004A800F063FE0DF1200C9CE80F008DE8F6
:100BD0000F000DF1100C9CE80F0000F04AFC10B162
:100BE000782102200EE00DF1200C9CE80F008DE82A
:100BF0000F000DF1100C9CE80F0000F04FFC20B12D
:100C00007821032000F0FCFCDAE70DF1200C9CE8D1
:100C10000F008DE80F000DF1100C9CE80F0000F0A4
:100C20001CFC10B1782102200FE00DF1200C9CE893
:100C30000F008DE80F000DF1100C9CE80F0000F084
:100C400024FC0028BCD07821032000F05DFCB7E72D
:100C500000B58DB0FFF7DFFE4FF47A7000F02AFC8C
:100C600000F0B4FE782000F07FFE04A800F00EFE35
:100C70000DF1200C9CE80F008DE80F000DF1100C19
:100C80009CE80F0000F042FF78B1782000F002FFEE
:100C9000642000F00FFC782000F0ACFE642000F02F
:100CA00009FC00F097FE0DB000BD0DF1200C9CE892
:100CB0000F008DE80F000DF1100C9CE80F0000F004
:100CC000D8FB10B1782102200EE00DF1200C9CE839
:100CD0000F008DE80F000DF1100C9CE80F0000F0E4
:100CE000DDFB20B17821032000F08AFCBDE70DF187
:100CF000200C9CE80F008DE80F000DF1100C9CE813
:100D00000F0000F0AAFB10B1782102200FE00DF1D6
:100D1000200C9CE80F008DE80F000DF1100C9CE8F2
:100D20000F0000F0B2FB00289FD07821032000F0D4
:100D3000EBFB9AE77047000030B589B00121042031
:100D4000FFF77AFE01210846FFF76AFE18208DF8AA
:100D50001F000720ADF81C0003208DF81E0007A916
:100D60001D48FFF715FC0024ADF81640C720ADF86C
:100D70001400ADF8124041F61F40ADF810004FF0DE
:100D8000804504A9284600F019FB7021ADF8001039
:100D90000120ADF80200ADF808406946284600F091
:100DA000F1F90821284600F02DFA6946284600F09E
:100DB0002FFA0821284600F06BFA6946284600F011
:100DC00071FA0821284600F0ABFA0121284600F00C
:100DD000C3F909B030BD0000000801400CB5002285
:100DE000264800920192016841F4803101604FF47D
:100DF000A063016801F4003101910099491C009140
:100E0000019911B900999942F3D10168890333D549
:100E1000012101911A490A6842F010020A600A6829
:100E200022F003020A600A6842F002020A60416886
:100E3000416041684160416841F4806141604168BE
:100E400021F47C114160416841F4E811416001687E
:100E500041F08071016001688901FCD5416821F091
:100E600003014160416841F0020141604168C1F302
:100E700081010229FAD10CBD01920CBD0010024083
:100E8000002002402DE9F0414FF43471204E214FF3
:100E9000DFF88480214C4FF47A75884201DD0846E2
:100EA00007E01F49884201DA084618E0002814D0FC
:100EB00015DD00F00EFF32463B4600F021FF002218
:100EC000434600F02FFE00F0D5FEC0F57A7081B2E7
:100ED000204600F067FA294615E02946F8E700F0B9
:100EE000F8FE32463B4600F00BFF0022434601F07D
:100EF00005F800F0BFFE06462946204600F052FAEB
:100F000006F57A76B1B22046BDE8F04100F04CBA61
:100F10009A9999999999E93F00807140000400409D
:100F200030FDFFFF2DE9F0414FF43471204E214F89
:100F3000DFF88480214C4FF47A75884201DD084641
:100F400007E01F49884201DA084618E0002814D05B
:100F500015DD00F0BEFE32463B4600F0D1FE002219
:100F6000434600F0DFFD00F085FEC0F57A7081B2E7
:100F7000204600F01BFA294615E02946F8E700F064
:100F8000A8FE32463B4600F0BBFE0022434600F07E
:100F9000B5FF00F06FFE06462946204600F006FA2F
:100FA00006F57A76B1B22046BDE8F04100F000BA0D
:100FB0009A9999999999E93F0080714000040040FD
:100FC00030FDFFFF2DE9F0414FF43471204E214FE9
:100FD000DFF88480214C4FF47A75884201DD0846A1
:100FE00007E01F49884201DA084618E0002814D0BB
:100FF00015DD00F06EFE32463B4600F081FE002219
:10100000434600F08FFD00F035FEC0F57A7081B2E6
:10101000204600F0C7F9294615E02946F8E700F018
:1010200058FE32463B4600F06BFE0022434600F07D
:1010300065FF00F01FFE06462946204600F0B2F983
:1010400006F57A76B1B22046BDE8F04100F0ACB9C1
:101050009A9999999999E93F00807140002C014033
:1010600030FDFFFF2DE9F0414FF43471204E214F48
:10107000DFF88480214C4FF47A75884201DD084600
:1010800007E01F49884201DA084618E0002814D01A
:1010900015DD00F01EFE32463B4600F031FE002218
:1010A000434600F03FFD00F0E5FDC0F57A7081B2E7
:1010B000204600F07BF9294615E02946F8E700F0C4
:1010C00008FE32463B4600F01BFE0022434600F07D
:1010D00015FF00F0CFFD06462946204600F066F9D0
:1010E00006F57A76B1B22046BDE8F04100F060B96D
:1010F0009A9999999999E93F00807140002C014093
:1011000030FDFFFF704700000F4810B5016841F047
:101110000101016041680D4A1140416001680C4ABB
:1011200011400160016821F480210160416821F4CF
:10113000FE0141604FF41F018160FFF74FFE05493A
:101140004FF00060086010BD001002400000FFF882
:10115000FFFFF6FE08ED00E00029018802D041F013
:10116000010101E021F0010101807047002930F800
:10117000441F02D041F4004101E0C1F30E0101809F
:101180007047000030B5028C22F001020284028C0C
:101190008388048B22F0020224F073050C882C4310
:1011A0000D8915434A882A43114DA8420BD0114D91
:1011B000A84208D0104DA84205D0104DA84202D038
:1011C0000F4DA8420DD122F008054A8923F440733F
:1011D0002A4322F004058A882A438D891D43CB893E
:1011E0002B4383800483C9888186028430BD00003C
:1011F000002C014000340140004001400044014007
:1012000000480140028B22F008020A430283704723
:1012100070B5028C22F010020284028C8388048B49
:101220000D8824F4E6464FF6FF7404EA052535439D
:101230000E8922F0200204EA061616434A8804EAC0
:1012400002123243104EB04202D0104EB04215D1BD
:1012500022F080064A8923F4406304EA02123243F2
:1012600022F040068A8804EA021232438E8904EA98
:1012700086061E43CB8904EA8303334383800583B8
:10128000C9880187028470BD002C014000340140F0
:10129000028B4FF6FF7322F4006203EA012111432F
:1012A0000183704770B5028C22F480720284028C34
:1012B0008388848B0D8824F0730425430E894FF6B0
:1012C000FF7422F4007204EA062616434A8804EAF0
:1012D00002223243104EB04202D0104EB04215D11D
:1012E00022F400664A8923F4405304EA022232437E
:1012F00022F480668A8804EA022232438E8904EA54
:1013000006161E43CB8904EA031333438380858387
:10131000C9888187028470BD002C014000340140DF
:10132000828B22F008020A438283704770B5028CD8
:1013300022F480520284058C8288838B0C8823F4EB
:10134000E6464FF6FF7303EA0424344325F40056BF
:101350000D8903EA053535434E8803EA06362E43E8
:10136000094DA84202D0094DA84205D122F480457A
:101370008A8903EA82122A4382808483C988A0F87A
:101380004010068470BD0000002C01400034014074
:10139000828B4FF6FF7322F4006203EA01211143AE
:1013A00081837047818670470187704781877047C6
:1013B000A0F84010704781847047000030B5028863
:1013C0001B4C1C4DA0420DD0A8420BD0B0F1804F59
:1013D00008D0194B984205D0184B984202D0184BB0
:1013E000984203D122F070034A881A43154B984261
:1013F00006D0154B984203D022F44073CA881A4392
:1014000002808A8882850A880285A0420AD0A84282
:1014100008D00E4A904205D00D4A904202D00D4AA3
:10142000904201D1097A01860121818230BD0000FC
:10143000002C01400034014000040040000800403E
:10144000000C00400010004000140040004001402B
:101450000044014000480140FEE7DDE90001012BA6
:1014600003D1012801D1012901D0002070470120BA
:1014700070479DE80700012803D1012901D1012A05
:1014800001D000207047012070470098012A03D145
:10149000012B01D1012800D000207047DDE90001B7
:1014A000012B03D1012801D1012901D0002070476F
:1014B0000120704710B503464FF47A7402E02046CD
:1014C00000F010F85B1E9BB2F9D210BD30B5044697
:1014D0004FF47A7502E02846FFF7ECFF641EA4B2D1
:1014E000F9D230BD00EBC000C1004FF0E0204161F7
:1014F00000228261052101610169C903FCD5826175
:1015000004210161704700002DE9F05F0D46374E60
:10151000374FDFF8E090DFF8E0A06C424FF066381C
:10152000022830D003285ED1084600F0D2FB3246B4
:101530003B4600F0E5FB00F09DFBFFF7A3FC2846CF
:10154000FFF7F0FC204600F0C4FB0D46044642467F
:101550004B4600F0D5FB32463B4600F0D1FB00F095
:1015600089FBFFF77FFD204629460022534600F005
:10157000C7FB32463B4600F0C3FB00F07BFBBDE8F7
:10158000F05FFFF71FBD084600F0A3FB8B46054642
:1015900032463B4600F0B4FB184F4FF0333632462C
:1015A0003B4600F0ADFB00F065FBFFF76BFC284607
:1015B000594632463B4600F0A3FB00F05BFBFFF7C9
:1015C000B1FC204600F085FB0D46044642464B46E2
:1015D00000F096FB00F04EFBFFF744FD2046294645
:1015E00000225346C7E7BDE8F09F00009A999999F9
:1015F0009999E93F6666E63F0000F83F3333E33FE1
:101600002DE9F84F0F46DFF8DC80DFF8DC90374E2D
:10161000DFF8DCB07C424FF033354FF0663A0228F9
:1016200030D003285BD1084600F053FB42464B46BE
:1016300000F066FB00F01EFBFFF724FC3846FFF7C6
:1016400071FC204600F045FB0F46044652465B46BF
:1016500000F056FB2A46334600F052FB00F00AFB2E
:10166000FFF700FD204639460022224B00F048FBE0
:101670002A46334600F044FB00F0FCFABDE8F84F80
:10168000FFF7A0BC084600F024FB074642464B4645
:10169000009100F035FB2A46334600F031FB00F0A4
:1016A000E9FAFFF7EFFB38462A463346009900F087
:1016B00027FB00F0DFFAFFF735FC204600F009FBBE
:1016C0000D46044652465B4600F01AFB00F0D2FA83
:1016D000FFF7C8FC204629460022064BCAE7BDE8B2
:1016E000F88F00009A9999999999E93F3333E33F2C
:1016F0006666E63F0000F83F00B58DB004A800F034
:10170000C5F80DF1200C9CE80F008DE80F000DF1DD
:10171000100C9CE80F0000F0ADF920B1782000F02B
:1017200069F90DB000BD0DF1200C9CE80F008DE8AB
:101730000F000DF1100C9CE80F00FFF79AFE10B19E
:10174000782102200EE00DF1200C9CE80F008DE8BE
:101750000F000DF1100C9CE80F00FFF79FFE20B169
:1017600078210320FFF74CFFC8E70DF1200C9CE81F
:101770000F008DE80F000DF1100C9CE80F00FFF733
:101780006CFE10B1782102200FE00DF1200C9CE8D6
:101790000F008DE80F000DF1100C9CE80F00FFF713
:1017A00074FE0028AAD078210320FFF7ADFEA5E73C
:1017B00010B58CB0002404A800F068F80DF1200CDE
:1017C0009CE80F008DE80F000DF1100C9CE80F0055
:1017D00000F09CF9A8B1641CE1B20520FEF7E0FD21
:1017E000022C03DC4FF49670FFF764FE032CE2D169
:1017F0004FF44870FFF75EFE782000F04BF90CB014
:1018000010BD0DF1200C9CE80F008DE80F000DF1CC
:10181000100C9CE80F00FFF72CFE10B1782102207D
:101820000EE00DF1200C9CE80F008DE80F000DF18B
:10183000100C9CE80F00FFF731FE20B17821032047
:10184000FFF7DEFEB7E70DF1200C9CE80F008DE8F6
:101850000F000DF1100C9CE80F00FFF7FEFD10B11A
:10186000782102200FE00DF1200C9CE80F008DE89C
:101870000F000DF1100C9CE80F00FFF706FE00288A
:1018800099D078210320FFF73FFE94E770B5174DFC
:1018900004464FF480512846FEF7F4FE20604FF4D2
:1018A00000412846FEF7EEFE114D606008212846F3
:1018B000FEF7E8FEA06010212846FEF7E3FEE06098
:1018C00020212846FEF7DEFE2061A9152846FEF7F6
:1018D000D9FE606169152846FEF7D4FEA06169143F
:1018E0000448FEF7CFFEE06170BD00000008014033
:1018F000000C014000100140C4210807FFF756BD4D
:1019000010B5FEF79EFCFFF717FA1420FFF7D2FD83
:10191000FEF7AAFCFFF7F0FFFFF77DF8002108466D
:10192000FEF73EFDFEF7AEFC04461420FFF7C2FDB5
:10193000012C12D0022C13D0032CF3D1782000F00C
:1019400059F84FF46170FFF7B5FD00F043F803213B
:101950000020FEF725FD002010BDFFF779F8F6E71F
:10196000FFF776F9F3E7000070B5054600F0B1F92E
:10197000124A134B00F0C4F900F07CF9FFF782FA29
:10198000684200F0A6F90E4604464FF066320D4B51
:1019900000F0B6F900F06EF9FFF764FB2846FFF798
:1019A000C1FA204631460022074B00F0A9F900F0A9
:1019B00061F9BDE87040FFF705BB00009A9999995D
:1019C0009999E93F6666E63F0000F83FC221480763
:1019D000FFF7ECBC10B50020FFF754FA0020FFF72A
:1019E00041FB0020FFF79EFABDE810400020FFF702
:1019F000E9BA000070B5044600F06BF9174D184BBA
:101A00002A4600F07DF92A46164B00F079F900F0DD
:101A100031F9FFF737FA604200F05BF90E460446F1
:101A20006A42114B00F06CF900F024F9FFF71AFB41
:101A3000204631462A460D4B00F062F900F01AF9B3
:101A4000FFF770FA204631460022094B00F058F9A2
:101A500000F010F9BDE87040FFF7B4BA9A9999996F
:101A60009999E93F9999D9BF6666E63F9999D93F17
:101A70000000F83FDDE90210DDE90032012805D160
:101A8000012903D1012A01D1012B01D00020704787
:101A9000012070472DE9F041804600F01AF9164DFB
:101AA0000E4604462A46154B00F02AF900F0E2F8EB
:101AB000FFF7E8F9204631466A42114B00F020F961
:101AC000104F2A463B4600F01BF900F0D3F8FFF711
:101AD000C9FA4046FFF726FA2046314600220A4B53
:101AE00000F00EF92A463B4600F00AF900F0C2F871
:101AF000BDE8F041FFF766BA9A9999999999E93F3B
:101B00006666E63F9999D93F0000F83F012805D164
:101B1000012903D1012A01D1012B01D000207047F6
:101B20000120704710B591EA030F48BF83F00043CE
:101B300000F1EC81841A71EB030C05D2121943EB0E
:101B40000C03001B61EB0C01DFF824E14FEA115498
:101B5000A4EB135C1EEA430F18BF9EEA445F73D0E8
:101B600023EA0E03DCF1200E21EA045143F4801332
:101B700032D322FA0CFE10EB0E0023FA0CFE41EBDE
:101B80000E01CCF1200E03FA0EFE10EB0E0051F107
:101B90000001B1F5801FCCF1200E32D201EB0451CF
:101BA00012FA0EF2BDE8104058BF7047401C38BF13
:101BB0005FEA420218BF7047002814BF20F00100FE
:101BC00041F100014FEA410313F5001F38BF704790
:101BD000A1F1C04100F08CB9012A43EB0302ACF142
:101BE000200CDCF11F0E32BF4FF0000E23FA0CF375
:101BF00010EB030041EB0451B4EB115FD0D0A1EB2B
:101C0000045101F5801149085FEA300001EB0451ED
:101C10000ED350F1000038BF12FA0EFE08D1BDE815
:101C20001040C9E7401C38BF5FEA4202CAD1C3E78F
:101C3000BDE810404FEA410313F5001F38BF70475D
:101C4000A1F1C04100F054B99EEA445F08D011EA06
:101C50005E0FBDE8104004BF01F000410020704756
:101C6000BDE8104070B500F0F5F800BF64FBBE3E63
:101C70000000E0FF4FEA41034FEA5353A3F58063AE
:101C8000D3F11E03C8BFD3F1210C0CDD4FF000428D
:101C900042EAC12242EA505232FA03FC8CEAE17C69
:101CA000ACEBE1707047102BC4BF0020704703F508
:101CB000787CBCF1FF3F04D06FF0004282EA210043
:101CC000704770B500F0C6F8499224800020704734
:101CD000F2E710F0004248BF4042B0FA80F310FA39
:101CE00003F10AD0C3F11D0303F580634FEA4150AD
:101CF00002EB035202EBD12170474FF00000704716
:101D0000DFF848C170B51CEA111E1EBF1CEA13158E
:101D10009EEA0C0F95EA0C0F00F06F8081EA030435
:101D200023EA4C134EEAD47E21EA4C1141F480118F
:101D300043F48013AE44A1FB024CA0FB0365AEF15B
:101D40007F7E361955EB0C05A1FB034C4CF10003CB
:101D5000A0FB021C16EB0C06654153F1000309427F
:101D600018BF46F0010613F4007F0BD14FEA033190
:101D70004FEA0530340341EA155140EA16506FF03E
:101D800003020AE04FEAC3214FEAC520F40241EA08
:101D9000555140EA56506FF0020202EB2E4201EB21
:101DA000025585EACE710AD05FEA440C18BF24F0D0
:101DB000004450F1000041F1000120EAD47040F2EB
:101DC000FE7C624500D270BDA84214BF4FF0804433
:101DD0004FF04044002E08BF0024BEF1806FA8BF22
:101DE000A1F1C041BDE8704080F282804FF0000058
:101DF00001F1C04101F0004170479EEA0C0F0CEA6E
:101E0000131518BF95EA0C0F06D04FF0000081EAB9
:101E1000030E0EF0004170BD00F01CF88900013E79
:101E200000F007B800F009B84FEA430C5FEA5C5CC9
:101E300008D081EA030100F05BB84FEA410C5FEA89
:101E40005C5CF6D14FF00000014970470000FF07CD
:101E50000000F87F0EF1020E2EF0030E5EF8046B08
:101E6000364205D4012A43EB030515F5001F12D8AD
:101E7000012841EB010C1CF5001F0CD80ED14FEAD4
:101E8000D17C15F5001F0CEB4C0C0CF1020C08BFBB
:101E90004CEBD37C04E04FF0080C01E04FEAD37C1C
:101EA0000CEB4C0526FA05F606F00706B6F1040C15
:101EB00006D20EEB860CBDE870404CF0010C60477A
:101EC000DFE80CF0090B02024FF000414FF0000078
:101ED000A1F5002170BD19461046012851EB0104FF
:101EE00018BFD4F5001484BF002001F0004170BD7C
:101EF0000808A0F500114FEA3101704710B591EACA
:101F0000030F48BF83F000433FF514AE841A71EB12
:101F1000030C07D212198CF0004C43EB0C03001B8E
:101F200061EB0C01DFF8A4E14FEA1154A4EB135C60
:101F30001EEA430F18BF9EEA445F00F0B08023EA18
:101F40006E03524221EA0451C3EB6E0338BF5B1E9D
:101F5000DCF1200E25D322FA0CFE10EB0E0043FA22
:101F60000CFE41EB0E01CCF1200E03FA0EFE10EB3D
:101F70000E0051F10001CCF1200E29D412FA0EF21C
:101F800001EB0451BDE8104058BF7047401C1CBF16
:101F9000B2F1004F704700280CBF491C20F001002F
:101FA000704712EB020E43EB030218BF4FF0010E15
:101FB0004EEA4202ACF1200CDCF11E0E54D943FA79
:101FC0000CFE10EB0E0051F1FF31CCF11E0ED5D5F9
:101FD0000EF1010E12FA0EFE404141EB010101EB40
:101FE000445C5FEA5C5C10D910EBDE7001EB0451DD
:101FF00038BFBEF1004FBDE8104018BF7047002841
:102000000CBF491C20F00100704730D24FEAD42C9D
:1020100011F5001124F400641BD0B1FA81F20B3ADF
:10202000A41AA41ED2F12003914030FA03F31943FD
:10203000904001EBCC71002C01EB0451BDE8104045
:10204000A8BF704701F1C0414FF0000001F000410E
:102050007047B0FA80F310FA03F100D110BDE41A12
:10206000173C4805C90AE4E701EB045110BD4910CB
:1020700001EB0451BDE810404FEA300002E04FF0A0
:10208000000170474A0008BF0042F8D0B2F5001FB7
:1020900028BF704701F000414FF0000070479EEAF2
:1020A000445F07D011EA5E0FBDE8104004BF002175
:1020B00000207047BDE8104070B5FFF7CBFE00BFB1
:1020C00040DFF63E83F00041104670470000E0FF1D
:1020D0003F065B4F666D7D077F6F777C395E797158
:1020E0000021000800000020040000002801000872
:1020F00004210008040000206406000044010008D8
:0421000010000000CB
:04000005080000ED02
:00000001FF
