:020000040800F2
:100000006806002089010008DD0900088D06000847
:10001000AD07000867020008FD0E000800000000A0
:10002000000000000000000000000000650A000859
:10003000FB03000800000000DF090008B50B000802
:10004000A3010008A3010008A3010008A301000800
:10005000A3010008A301000831050008A30100085E
:10006000A3010008A3010008A3010008A3010008E0
:10007000A3010008A3010008A3010008A3010008D0
:10008000A3010008A3010008A3010008A3010008C0
:10009000A3010008A3010008A3010008A3010008B0
:1000A000A3010008A3010008A3010008A3010008A0
:1000B000A3010008A3010008A3010008A301000890
:1000C000A3010008A3010008A3010008A301000880
:1000D000A3010008A3010008A3010008A301000870
:1000E000A3010008A3010008A301000800F002F822
:1000F00000F03AF80AA090E8000C82448344AAF188
:100100000107DA4501D100F02FF8AFF2090EBAE885
:100110000F0013F0010F18BFFB1A43F0010318473B
:10012000980E0000B80E0000103A24BF78C878C1BD
:10013000FAD8520724BF30C830C144BF04680C60ED
:10014000704700000023002400250026103A28BF35
:1001500078C1FBD8520728BF30C148BF0B60704739
:100160001FB51FBD10B510BD00F031F81146FFF7E7
:10017000F7FF00F0E9FE00F04FF803B4FFF7F2FFDD
:1001800003BC00F057F800000948804709480047C1
:10019000FEE7FEE7FEE7FEE7FEE7FEE7FEE7FEE737
:1001A000FEE7FEE704480549054A064B7047000094
:1001B000B90B0008ED000008680000206806002068
:1001C000680200206802002070477047704775463B
:1001D00000F02CF8AE4605006946534620F00700B3
:1001E000854618B020B5FFF7DDFFBDE820404FF091
:1001F00000064FF000074FF000084FF0000B21F011
:100200000701AC46ACE8C009ACE8C009ACE8C009DD
:10021000ACE8C0098D46704710B50446AFF30080C6
:100220002046BDE81040FFF7A8BF00000048704717
:100230000400002001491820ABBEFEE726000200A2
:10024000704710B50121032000F0CAFB012140F6E0
:100250003D0000F0D1FB00F0ABFA00F0CFF8BDE8B4
:10026000104000F077B8FEE710B5002404F1080054
:10027000C0B2002100F0AAF8641CE4B2082CF5D347
:1002800010BD00002DE9F04100F02AFA6F2000F0C7
:10029000FFF900F05DFA2C4800240126C0F89C61AB
:1002A000D0F81C11294F254680466006040E4021D7
:1002B000384600F0E9F9022000F031FEC8F89C61F0
:1002C000D8F81C0108B1641CE4B24021384600F0A3
:1002D000D9F9022000F023FE6D1CEDB2082DE4D305
:1002E00000F01EFA1A48403C102C0FD2DFE804F050
:1002F000211715131F110C0A25290827231D1B1967
:10030000002102E0067001E0022101700078BDE8E2
:10031000F0810321F9E70421F7E70521F5E706213C
:10032000F3E70721F1E70821EFE70921EDE70A21CB
:10033000EBE70B21E9E70C21E7E70D21E5E70E21CB
:10034000E3E70F21E1E7000000802142000C0140BB
:100350000000002038B514208DF8030003208DF82C
:100360000200C0200D4CADF800006946204600F0A8
:100370000FF94021204600F087F98021204600F047
:1003800083F9012000F0BFFD0021072000F01EF8D6
:100390000321042000F01AF838BD0000000C0140D1
:1003A000C0F10B00C21700EB527222F00702801A54
:1003B000054B01F00F0201F080019A5C08301144F6
:1003C000C9B2C0B200F002B8A60F000870B50D4661
:1003D000044600F085F904F00F00602141EA400076
:1003E00000F056F900F0B4F9284600F051F900F099
:1003F000AFF9BDE8704000F093B970472DE9F843BC
:100400000121474800F012F904248DF80340A002AE
:10041000ADF80000434F03258DF802506946384679
:1004200000F0B6F88DF803406603ADF800608DF873
:1004300002506946384600F0ABF88DF803400820BA
:10044000ADF80000DFF8E0808DF8025069464046C4
:1004500000F09EF88DF803401020ADF800008DF8F4
:1004600002506946404600F093F88DF80340202082
:10047000ADF800008DF802506946404600F088F85B
:100480008DF80340A001ADF800008DF802506946D8
:10049000404600F07DF88DF80340E001ADF8000023
:1004A0008DF802506946404600F072F88DF803401E
:1004B000E002ADF800001D4F8DF802506946384645
:1004C00000F066F88DF803402003ADF800008DF8C9
:1004D00002506946384600F05BF88DF80340ADF8ED
:1004E00000608DF802506946384600F051F88DF8EA
:1004F00003406002ADF800008DF8025069464046A6
:1005000000F046F88DF803402002ADF800008DF8A9
:1005100002506946404600F03BF8BDE8F883000011
:100520000002300000080140000C014000100140B2
:1005300010B5012000F01CF8012811D1840700211A
:10054000204600F061FB0021204600F087FC0121DD
:10055000204600F059FBBDE81040012000F002B831
:1005600010BD0000014908607047000014040140FC
:10057000064A014600201268044B0A4014331B68E7
:100580000B4202D0002A00D0012070470004014035
:10059000F0B5CC78002204F00F03E40601D58C7886
:1005A00023430C784FF00F0C14F0FF0F4FF0010EA7
:1005B0001BD005680E880EFA02F42640A64210D120
:1005C00096000CFA06F725EA070703FA06F5CE7837
:1005D0003D43282E02D0482E02D002E0446100E0C4
:1005E0000461521C082AE5D305600A88FF2A1CD939
:1005F0004468002202F108060EFA06F50E882E4025
:10060000AE420ED196000CFA06F7BC4303FA06F789
:10061000CE783C43282E00D14561CE78482E00D1BB
:100620000561521C082AE5D34460F0BDF0B5144CB6
:10063000002801DAE36900E06368450D2E0185B208
:10064000C0F30157B540C0F30342032F05D0C602E3
:100650000AD503269640B34307E023F0706263682F
:1006600023F07063636002E0AB4343F0706201B15A
:100670002A43002801DAE261F0BD6260F0BD0000AB
:10068000000001404161704701617047FEE70000D2
:1006900070B5124E0546002428064FF08001304602
:1006A00002D5FFF7F1FF01E0FFF7ECFF022000F0B9
:1006B00036FC40213046FFF7E7FF022000F02FFC18
:1006C00040213046FFF7DEFF022000F028FC6806DC
:1006D000641C050EE4B2082CDED370BD000C014092
:1006E00010B50E4C80212046FFF7CEFF402120465A
:1006F000FFF7CAFF022000F012FC80212046FFF71E
:10070000C1FF022000F00BFC40212046FFF7BAFF9A
:10071000BDE81040022000F002BC0000000C0140C7
:1007200010B50A4C80212046FFF7ACFF402120463F
:10073000FFF7AAFF022000F0F2FB80212046FFF71E
:10074000A3FFBDE81040022000F0E9BB000C01400F
:100750002DE9F041134D0126C5F89C61D5F81C0127
:10076000022000F0DCFB104F40213846FFF78CFFE1
:10077000022000F0D4FB0024C5F89C61D5F81C01D0
:1007800030B1022000F0CBFB641CE4B2FA2CF3D3AE
:1007900040213846FFF776FFBDE8F041022000F027
:1007A000BEBB000000802142000C0140FEE70000BB
:1007B0002DE9F04188B001218348FFF737FF10256C
:1007C0008DF803502E02DFF80482ADF80060032498
:1007D0008DF8024069464046FFF7DAFE3146404652
:1007E000FFF752FF8DF803506E02ADF800608DF8F0
:1007F000024069464046FFF7CBFE31464046FFF7D0
:1008000043FF8DF80350AE02ADF800608DF8024052
:1008100069464046FFF7BCFE31464046FFF734FFCD
:100820008DF80350ED02ADF800508DF80240694696
:100830004046FFF7ADFE29464046FFF725FF402022
:10084000ADF800001825624F8DF803508DF8024076
:1008500069463846FFF79CFE8020ADF800008DF811
:1008600003508DF8024069463846FFF791FE012695
:10087000ADF800608DF803508DF80240694640469F
:10088000FFF786FE0220ADF800008DF803508DF8CA
:10089000024069464046FFF77BFE3002ADF800009B
:1008A0008DF803508DF8024069463846FFF770FE18
:1008B0007002ADF800008DF803508DF802406946D3
:1008C0003846FFF765FEB002ADF800008DF8035022
:1008D0008DF8024069463846FFF75AFEF002ADF83F
:1008E00000008DF803508DF8024069463846FFF746
:1008F0004FFE40F2E7300024ADF81800354DADF85A
:100900001440ADF81A40ADF8164005A9284600F08D
:10091000A7FA314F05A9384600F0A2FA7020ADF8C9
:100920000400ADF80660ADF80C4001A9284600F0BF
:1009300081F901A9284600F0C3F901A9284600F071
:1009400009FA01A9284600F049FA01A9384600F041
:1009500071F901A9384600F0B3F901A9384600F051
:10096000F9F901A9384600F039FA0821284600F0C3
:10097000A1F90821284600F0E3F90821284600F0F3
:1009800027FA0821284600F05BFA0821384600F0D3
:1009900091F90821384600F0D3F90821384600F0D3
:1009A00017FA0821384600F04BFA0121284600F0DA
:1009B00035F90121284600F027F90121384600F0D9
:1009C00023F908B0BDE8F08140001600000C01409A
:1009D00000080140002C01400004004070477047AF
:1009E000044A0029D16901D0014300E08143D1616B
:1009F0007047000000100240044A0029916901D0AC
:100A0000014300E081439161704700000010024003
:100A100010B501210020FFF7C3FC4FF47A74204683
:100A200000F071FA00F06BFA204600F06CFA00F06A
:100A3000B6FA204600F067FA00F082FA204600F08D
:100A400062FA00F0A8FA2046BDE8104000F05BBA58
:100A500010B502210020FFF7A3FCBDE810401420D0
:100A600000F051BA7047000030B589B00121042070
:100A7000FFF7C2FF01210846FFF7B2FF18208DF8EB
:100A80001F000720ADF81C0003208DF81E0007A9E9
:100A90001D48FFF77DFD0024ADF81640C720ADF8D6
:100AA0001400ADF8124041F61F40ADF810004FF0B1
:100AB000804504A9284600F0D3F97021ADF8001054
:100AC0000120ADF80200ADF808406946284600F064
:100AD000B1F80821284600F0EDF86946284600F0F4
:100AE000EFF80821284600F02BF96946284600F067
:100AF00031F90821284600F06BF90121284600F061
:100B000083F809B030BD0000000801400CB5002298
:100B1000264800920192016841F4803101604FF44F
:100B2000A063016801F4003101910099491C009112
:100B3000019911B900999942F3D10168890333D51C
:100B4000012101911A490A6842F010020A600A68FC
:100B500022F003020A600A6842F002020A60416859
:100B6000416041684160416841F480614160416891
:100B700021F47C114160416841F4E8114160016851
:100B800041F08071016001688901FCD5416821F064
:100B900003014160416841F0020141604168C1F3D5
:100BA00081010229FAD10CBD01920CBD0010024056
:100BB00000200240704700000F4810B5016841F066
:100BC0000101016041680D4A1140416001680C4A11
:100BD00011400160016821F480210160416821F425
:100BE000FE0141604FF41F018160FFF78FFF05494F
:100BF0004FF00060086010BD001002400000FFF8D8
:100C0000FFFFF6FE08ED00E00029018802D041F068
:100C1000010101E021F0010101807047002930F855
:100C2000441F02D041F4004101E0C1F30E010180F4
:100C30007047000030B5028C22F001020284028C61
:100C40008388048B22F0020224F073050C882C4365
:100C50000D8915434A882A43114DA8420BD0114DE6
:100C6000A84208D0104DA84205D0104DA84202D08D
:100C70000F4DA8420DD122F008054A8923F4407394
:100C80002A4322F004058A882A438D891D43CB8993
:100C90002B4383800483C9888186028430BD000091
:100CA000002C01400034014000400140004401405C
:100CB00000480140028B22F008020A430283704779
:100CC00070B5028C22F010020284028C8388048B9F
:100CD0000D8824F4E6464FF6FF7404EA05253543F3
:100CE0000E8922F0200204EA061616434A8804EA16
:100CF00002123243104EB04202D0104EB04215D113
:100D000022F080064A8923F4406304EA0212324347
:100D100022F040068A8804EA021232438E8904EAED
:100D200086061E43CB8904EA83033343838005830D
:100D3000C9880187028470BD002C01400034014045
:100D4000028B4FF6FF7322F4006203EA0121114384
:100D50000183704770B5028C22F480720284028C89
:100D60008388848B0D8824F0730425430E894FF605
:100D7000FF7422F4007204EA062616434A8804EA45
:100D800002223243104EB04202D0104EB04215D172
:100D900022F400664A8923F4405304EA02223243D3
:100DA00022F480668A8804EA022232438E8904EAA9
:100DB00006161E43CB8904EA0313334383808583DD
:100DC000C9888187028470BD002C01400034014035
:100DD000828B22F008020A438283704770B5028C2E
:100DE00022F480520284058C8288838B0C8823F441
:100DF000E6464FF6FF7303EA0424344325F4005615
:100E00000D8903EA053535434E8803EA06362E433D
:100E1000094DA84202D0094DA84205D122F48045CF
:100E20008A8903EA82122A4382808483C988A0F8CF
:100E30004010068470BD0000002C014000340140C9
:100E4000828B4FF6FF7322F4006203EA0121114303
:100E5000818370470187704781877047818470471D
:100E600030B502881B4C1C4DA0420DD0A8420BD0BF
:100E7000B0F1804F08D0194B984205D0184B9842DA
:100E800002D0184B984203D122F070034A881A43CB
:100E9000154B984206D0154B984203D022F440736C
:100EA000CA881A4302808A8882850A880285A042FD
:100EB0000AD0A84208D00E4A904205D00D4A90426E
:100EC00002D00D4A904201D1097A01860121818226
:100ED00030BD0000002C01400034014000040040FF
:100EE00000080040000C00400010004000140040CA
:100EF000004001400044014000480140FEE7BD21A0
:100F00008807FFF7A7BF10B503464FF47A7402E0D5
:100F1000204600F004F85B1E9BB2F9D210BD00EB36
:100F2000C000C1004FF0E020416100228261052134
:100F300001610169C903FCD5826104210161704727
:100F4000C4210807FFF788BF10B5FFF77AF9FFF74C
:100F50008BFD1420FFF7D7FFFFF786F9FFF7F0FFAF
:100F600000F019F800210846FFF71AFAFFF78AF98E
:100F700004461420FFF7C7FF012C09D0022CF5D13D
:100F8000FFF766FD03210020FFF70AFA002010BDDD
:100F9000FFF73EFDF6E7B4210807FFF75BBFC2216C
:100FA0004807FFF759BF3F065B4F666D7D077F6FB0
:100FB000777C395E79710000D80F000800000020AE
:100FC0000400000028010008DC0F000804000020D5
:0C0FD0006406000044010008100000004E
:04000005080000ED02
:00000001FF
