:020000040800F2
:100000006806002089010008F1090008A30600081D
:10001000C1070008670200082D1200080000000058
:10002000000000000000000000000000090B0008B4
:10003000FB03000800000000150A0008D90E0008A4
:10004000A3010008A3010008A3010008A301000800
:10005000A3010008A301000831050008A30100085E
:10006000A3010008A3010008A3010008A3010008E0
:10007000A3010008A3010008A3010008A3010008D0
:10008000A3010008A3010008A3010008A3010008C0
:10009000A3010008A3010008A3010008A3010008B0
:1000A000A3010008A3010008A3010008A3010008A0
:1000B000A3010008A3010008A3010008A301000890
:1000C000A3010008A3010008A3010008A301000880
:1000D000A3010008A3010008A3010008A301000870
:1000E000A3010008A3010008A301000800F002F822
:1000F00000F03AF80AA090E8000C82448344AAF188
:100100000107DA4501D100F02FF8AFF2090EBAE885
:100110000F0013F0010F18BFFB1A43F0010318473B
:10012000741C0000941C0000103A24BF78C878C1E9
:10013000FAD8520724BF30C830C144BF04680C60ED
:10014000704700000023002400250026103A28BF35
:1001500078C1FBD8520728BF30C148BF0B60704739
:100160001FB51FBD10B510BD00F031F81146FFF7E7
:10017000F7FF01F011FA00F04FF803B4FFF7F2FFB8
:1001800003BC00F057F800000948804709480047C1
:10019000FEE7FEE7FEE7FEE7FEE7FEE7FEE7FEE737
:1001A000FEE7FEE704480549054A064B7047000094
:1001B000DD0E0008ED000008680000206806002041
:1001C000680200206802002070477047704775463B
:1001D00000F02CF8AE4605006946534620F00700B3
:1001E000854618B020B5FFF7DDFFBDE820404FF091
:1001F00000064FF000074FF000084FF0000B21F011
:100200000701AC46ACE8C009ACE8C009ACE8C009DD
:10021000ACE8C0098D46704710B50446AFF30080C6
:100220002046BDE81040FFF7A8BF00000048704717
:100230000400002001491820ABBEFEE726000200A2
:10024000704710B50121032000F0EAFB012140F6C0
:100250003D0000F0F1FB00F0B5FA00F0CFF8BDE88A
:10026000104000F077B8FEE710B5002404F1080054
:10027000C0B2002100F0AAF8641CE4B2082CF5D347
:1002800010BD00002DE9F04100F034FA6F2000F0BD
:1002900009FA00F067FA2C4800240126C0F89C6196
:1002A000D0F81C11294F254680466006040E4021D7
:1002B000384600F0F0F9022000F0E6FFC8F89C6133
:1002C000D8F81C0108B1641CE4B24021384600F0A3
:1002D000E0F9022000F0D8FF6D1CEDB2082DE4D348
:1002E00000F028FA1A48403C102C0FD2DFE804F046
:1002F000211715131F110C0A25290827231D1B1967
:10030000002102E0067001E0022101700078BDE8E2
:10031000F0810321F9E70421F7E70521F5E706213C
:10032000F3E70721F1E70821EFE70921EDE70A21CB
:10033000EBE70B21E9E70C21E7E70D21E5E70E21CB
:10034000E3E70F21E1E7000000802142000C0140BB
:100350000000002038B514208DF8030003208DF82C
:100360000200C0200D4CADF800006946204600F0A8
:100370000FF94021204600F08EF98021204600F040
:100380008AF9012000F068FF0021072000F01EF824
:100390000321042000F01AF838BD0000000C0140D1
:1003A000C0F10B00C21700EB527222F00702801A54
:1003B000054B01F00F0201F080019A5C08301144F6
:1003C000C9B2C0B200F002B8841D000870B50D4675
:1003D000044600F08FF904F00F00602141EA40006C
:1003E00000F060F900F0BEF9284600F05BF900F07B
:1003F000B9F9BDE8704000F09DB970472DE9F843A8
:100400000121474800F012F904248DF80340A002AE
:10041000ADF80000434F03258DF802506946384679
:1004200000F0B6F88DF803406603ADF800608DF873
:1004300002506946384600F0ABF88DF803400820BA
:10044000ADF80000DFF8E0808DF8025069464046C4
:1004500000F09EF88DF803401020ADF800008DF8F4
:1004600002506946404600F093F88DF80340202082
:10047000ADF800008DF802506946404600F088F85B
:100480008DF80340A001ADF800008DF802506946D8
:10049000404600F07DF88DF80340E001ADF8000023
:1004A0008DF802506946404600F072F88DF803401E
:1004B000E002ADF800001D4F8DF802506946384645
:1004C00000F066F88DF803402003ADF800008DF8C9
:1004D00002506946384600F05BF88DF80340ADF8ED
:1004E00000608DF802506946384600F051F88DF8EA
:1004F00003406002ADF800008DF8025069464046A6
:1005000000F046F88DF803402002ADF800008DF8A9
:1005100002506946404600F03BF8BDE8F883000011
:100520000002300000080140000C014000100140B2
:1005300010B5012000F01CF8012811D1840700211A
:10054000204600F0F3FC0021204600F01EFE0121B1
:10055000204600F0EBFCBDE81040012000F002B89E
:1005600010BD0000014908607047000014040140FC
:10057000064A014600201268044B0A4014331B68E7
:100580000B4202D0002A00D0012070470004014035
:10059000F0B5CC78002204F00F03E40601D58C7886
:1005A00023430C784FF00F0C14F0FF0F4FF0010EA7
:1005B0001BD005680E880EFA02F42640A64210D120
:1005C00096000CFA06F725EA070703FA06F5CE7837
:1005D0003D43282E02D0482E02D002E0446100E0C4
:1005E0000461521C082AE5D305600A88FF2A1CD939
:1005F0004468002202F108060EFA06F50E882E4025
:10060000AE420ED196000CFA06F7BC4303FA06F789
:10061000CE783C43282E00D14561CE78482E00D1BB
:100620000561521C082AE5D34460F0BDF0B5144CB6
:10063000002801DAE36900E06368450D2E0185B208
:10064000C0F30157B540C0F30342032F05D0C602E3
:100650000AD503269640B34307E023F0706263682F
:1006600023F07063636002E0AB4343F0706201B15A
:100670002A43002801DAE261F0BD6260F0BD0000AB
:10068000000001400246002092680A4200D001208A
:1006900070474161704701617047B921880700F0D8
:1006A0006DBDFEE770B5124E0546002428064FF0DA
:1006B0008001304602D5FFF7EEFF01E0FFF7E9FFCA
:1006C000022000F0E1FD40213046FFF7E4FF022068
:1006D00000F0DAFD40213046FFF7DBFF022000F09A
:1006E000D3FD6806641C050EE4B2082CDED370BD91
:1006F000000C014010B50E4C80212046FFF7CBFFC7
:1007000040212046FFF7C7FF022000F0BDFD8021F9
:100710002046FFF7BEFF022000F0B6FD4021204634
:10072000FFF7B7FFBDE81040022000F0ADBD0000AC
:10073000000C014010B50A4C80212046FFF7A9FFAC
:1007400040212046FFF7A7FF022000F09DFD8021F9
:100750002046FFF7A0FFBDE81040022000F094BD46
:10076000000C01402DE9F041134D0126C5F89C61B4
:10077000D5F81C01022000F087FD104F40213846BB
:10078000FFF789FF022000F07FFD0024C5F89C617F
:10079000D5F81C0130B1022000F076FD641CE4B2F3
:1007A000FA2CF3D340213846FFF773FFBDE8F04140
:1007B000022000F069BD000000802142000C0140D1
:1007C000FEE700002DE9F04188B001218348FFF7E2
:1007D0002DFF10258DF803502E02DFF80482ADF8AE
:1007E000006003248DF8024069464046FFF7D0FEC2
:1007F00031464046FFF74FFF8DF803506E02ADF8CB
:1008000000608DF8024069464046FFF7C1FE314660
:100810004046FFF740FF8DF80350AE02ADF8006090
:100820008DF8024069464046FFF7B2FE3146404629
:10083000FFF731FF8DF80350ED02ADF800508DF851
:10084000024069464046FFF7A3FE29464046FFF7AF
:1008500022FF4020ADF800001825624F8DF80350AC
:100860008DF8024069463846FFF792FE8020ADF8C9
:1008700000008DF803508DF8024069463846FFF7B6
:1008800087FE0126ADF800608DF803508DF8024018
:1008900069464046FFF77CFE0220ADF800008DF867
:1008A00003508DF8024069464046FFF771FE300262
:1008B000ADF800008DF803508DF8024069463846C7
:1008C000FFF766FE7002ADF800008DF803508DF85A
:1008D000024069463846FFF75BFEB002ADF8000003
:1008E0008DF803508DF8024069463846FFF750FEF8
:1008F000F002ADF800008DF803508DF80240694613
:100900003846FFF745FE40F2E7300024ADF8180006
:10091000354DADF81440ADF81A40ADF8164005A9B4
:10092000284600F035FC314F05A9384600F030FC70
:100930007020ADF80400ADF80660ADF80C4001A9D8
:10094000284600F009FB01A9284600F04BFB01A94D
:10095000284600F091FB01A9284600F0D1FB01A92F
:10096000384600F0F9FA01A9384600F03BFB01A92E
:10097000384600F081FB01A9384600F0C1FB082190
:10098000284600F029FB0821284600F06BFB0821CF
:10099000284600F0AFFB0821284600F0E3FB0821C1
:1009A000384600F019FB0821384600F05BFB0821AF
:1009B000384600F09FFB0821384600F0D3FB0121A8
:1009C000284600F0BDFA0121284600F0AFFA0121C7
:1009D000384600F0ABFA08B0BDE8F08140001600E0
:1009E000000C014000080140002C014000040040C0
:1009F0007047F0B50DF1140C9CE8F00030B929B93E
:100A000022B91BB914B90DB906B90FB10020F0BD58
:100A10000120F0BD7047B421080700F0AFBB000013
:100A2000044A0029D16901D0014300E08143D1612A
:100A30007047000000100240044A0029916901D06B
:100A4000014300E0814391617047000000100240C3
:100A500010B501210020FFF7A3FCFFF71EFE4FF4A5
:100A60007A7000F0F9FB00F00DFE01210720FFF77E
:100A700097FC642000F0B8FD00F088FC02210720FC
:100A8000FFF78EFC642000F0AFFD00F0BBFC0321FB
:100A90000720FFF785FC642000F0A6FD00F0D4FDE0
:100AA00004210720FFF77CFC642000F09DFD00F08E
:100AB000EBFC05210720FFF773FC642000F094FD98
:100AC00000F064FC06210720FFF76AFC642000F0B8
:100AD0008BFD07210846FFF763FC00F00DFD0120A8
:100AE00000F0C6FB00F0D2FD0A21BDE8104007204F
:100AF000FFF756BC10B502210020FFF751FCBDE8FE
:100B00001040142000F0A8BB7047000030B589B039
:100B100001210420FFF790FF01210846FFF780FF25
:100B200018208DF81F000720ADF81C0003208DF859
:100B30001E0007A91D48FFF72BFD0024ADF8164045
:100B4000C720ADF81400ADF8124041F61F40ADF8D3
:100B500010004FF0804504A9284600F019FB7021D1
:100B6000ADF800100120ADF80200ADF8084069466C
:100B7000284600F0F1F90821284600F02DFA6946D0
:100B8000284600F02FFA0821284600F06BFA694643
:100B9000284600F071FA0821284600F0ABFA01213E
:100BA000284600F0C3F909B030BD0000000801403C
:100BB0000CB50022264800920192016841F4803170
:100BC00001604FF4A063016801F4003101910099C4
:100BD000491C0091019911B900999942F3D101681A
:100BE000890333D5012101911A490A6842F01002A4
:100BF0000A600A6822F003020A600A6842F00202F0
:100C00000A604168416041684160416841F4806127
:100C10004160416821F47C114160416841F4E81170
:100C20004160016841F08071016001688901FCD573
:100C3000416821F003014160416841F002014160D7
:100C40004168C1F381010229FAD10CBD01920CBDAA
:100C500000100240002002402DE9F0414FF43471B1
:100C6000204E214FDFF88480214C4FF47A75884262
:100C700001DD084607E01F49884201DA084618E00E
:100C8000002814D015DD00F006FE32463B4600F089
:100C900019FE0022434600F01FFD00F0CDFDC0F517
:100CA0007A7081B2204600F067FA294615E029469D
:100CB000F8E700F0F0FD32463B4600F003FE00226C
:100CC000434600F0FDFE00F0B7FD064629462046EB
:100CD00000F052FA06F57A76B1B22046BDE8F0414E
:100CE00000F04CBA9A9999999999E93F008071401E
:100CF0000004004030FDFFFF2DE9F0414FF4347156
:100D0000204E214FDFF88480214C4FF47A758842C1
:100D100001DD084607E01F49884201DA084618E06D
:100D2000002814D015DD00F0B6FD32463B4600F039
:100D3000C9FD0022434600F0CFFC00F07DFDC0F568
:100D40007A7081B2204600F01BFA294615E0294648
:100D5000F8E700F0A0FD32463B4600F0B3FD00226C
:100D6000434600F0ADFE00F067FD064629462046EA
:100D700000F006FA06F57A76B1B22046BDE8F041F9
:100D800000F000BA9A9999999999E93F00807140C9
:100D90000004004030FDFFFF2DE9F0414FF43471B5
:100DA000204E214FDFF88480214C4FF47A75884221
:100DB00001DD084607E01F49884201DA084618E0CD
:100DC000002814D015DD00F066FD32463B4600F0E9
:100DD00079FD0022434600F07FFC00F02DFDC0F5B8
:100DE0007A7081B2204600F0C7F9294615E02946FD
:100DF000F8E700F050FD32463B4600F063FD00226C
:100E0000434600F05DFE00F017FD064629462046E9
:100E100000F0B2F906F57A76B1B22046BDE8F041AD
:100E200000F0ACB99A9999999999E93F008071407D
:100E3000002C014030FDFFFF2DE9F0414FF43471EB
:100E4000204E214FDFF88480214C4FF47A75884280
:100E500001DD084607E01F49884201DA084618E02C
:100E6000002814D015DD00F016FD32463B4600F098
:100E700029FD0022434600F02FFC00F0DDFCC0F508
:100E80007A7081B2204600F07BF9294615E02946A8
:100E9000F8E700F000FD32463B4600F013FD00226B
:100EA000434600F00DFE00F0C7FC064629462046EA
:100EB00000F066F906F57A76B1B22046BDE8F04159
:100EC00000F060B99A9999999999E93F0080714029
:100ED000002C014030FDFFFF704700000F4810B5A7
:100EE000016841F00101016041680D4A1140416013
:100EF00001680C4A11400160016821F48021016001
:100F0000416821F4FE0141604FF41F018160FFF749
:100F10004FFE05494FF00060086010BD0010024010
:100F20000000FFF8FFFFF6FE08ED00E00029018851
:100F300002D041F0010101E021F001010180704780
:100F4000002930F8441F02D041F4004101E0C1F310
:100F50000E0101807047000030B5028C22F00102C2
:100F60000284028C8388048B22F0020224F0730531
:100F70000C882C430D8915434A882A43114DA842F9
:100F80000BD0114DA84208D0104DA84205D0104DED
:100F9000A84202D00F4DA8420DD122F008054A897F
:100FA00023F440732A4322F004058A882A438D895A
:100FB0001D43CB892B4383800483C98881860284A7
:100FC00030BD0000002C01400034014000400140D1
:100FD0000044014000480140028B22F008020A430D
:100FE0000283704770B5028C22F010020284028CDA
:100FF0008388048B0D8824F4E6464FF6FF7404EAD8
:10100000052535430E8922F0200204EA0616164310
:101010004A8804EA02123243104EB04202D0104E07
:10102000B04215D122F080064A8923F4406304EAD5
:101030000212324322F040068A8804EA0212324346
:101040008E8904EA86061E43CB8904EA8303334370
:1010500083800583C9880187028470BD002C01400C
:1010600000340140028B4FF6FF7322F4006203EA62
:10107000012111430183704770B5028C22F4807204
:101080000284028C8388848B0D8824F073042543AA
:101090000E894FF6FF7422F4007204EA0626164306
:1010A0004A8804EA02223243104EB04202D0104E67
:1010B000B04215D122F400664A8923F4405304EA71
:1010C0000222324322F480668A8804EA02223243F2
:1010D0008E8904EA06161E43CB8904EA03133343C0
:1010E00083808583C9888187028470BD002C01407C
:1010F00000340140828B22F008020A438283704749
:1011000070B5028C22F480520284058C8288838B15
:101110000C8823F4E6464FF6FF7303EA04243443B5
:1011200025F400560D8903EA053535434E8803EA58
:1011300006362E43094DA84202D0094DA84205D1DA
:1011400022F480458A8903EA82122A4382808483BA
:10115000C988A0F84010068470BD0000002C014032
:1011600000340140828B4FF6FF7322F4006203EAE1
:101170000121114381837047818670470187704741
:1011800081877047A0F84010704781847047000045
:1011900030B502881B4C1C4DA0420DD0A8420BD08C
:1011A000B0F1804F08D0194B984205D0184B9842A7
:1011B00002D0184B984203D122F070034A881A4398
:1011C000154B984206D0154B984203D022F4407339
:1011D000CA881A4302808A8882850A880285A042CA
:1011E0000AD0A84208D00E4A904205D00D4A90423B
:1011F00002D00D4A904201D1097A018601218182F3
:1012000030BD0000002C01400034014000040040CB
:1012100000080040000C0040001000400014004096
:10122000004001400044014000480140FEE7DDE984
:101230000001012B03D1012801D1012901D0002097
:101240007047012070470098012A03D1012B01D17A
:10125000012800D00020704710B503464FF47A747F
:1012600002E0204600F010F85B1E9BB2F9D210BDE0
:1012700030B504464FF47A7502E02846FFF7ECFFDC
:10128000641EA4B2F9D230BD00EBC000C1004FF023
:10129000E020416100228261052101610169C903E9
:1012A000FCD5826104210161704700002DE9F047FF
:1012B0000F46354E7C424FF066354FF0FF3802281E
:1012C00030D003285DD1084600F0E5FA894607468C
:1012D000424600F011FD00F0AFFAFFF7BDFC3846C2
:1012E00049462A46334600F0EDFA00F0A5FAFFF72A
:1012F00003FD0020FFF7A0FD0020FFF74DFD1E209D
:10130000FFF7AAFF204600F0C6FA2A46334600F04F
:10131000D9FA00F091FAFFF78FFD2046BDE8F047BB
:10132000FFF73ABD0020FFF797FC0020FFF7E4FC31
:10133000204600F0B0FA2A46334600F0C3FA00F027
:101340007BFAFFF779FD2046FFF726FD1E20FFF709
:1013500083FF384600F09FFA0F460446424600F0ED
:10136000CBFC00F069FAFFF777FC204639462A46A5
:10137000334600F0A7FA00F05FFABDE8F047FFF748
:10138000BBBCBDE8F08700006666E63F00B58DB0E7
:1013900004A800F0C7F80DF1200C9CE80F008DE8C0
:1013A0000F000DF1100C9CE80F0000F07EF930B139
:1013B00000F06CF90220FFF75BFF0DB000BD0DF1EE
:1013C000200C9CE80F008DE80F000DF1100C9CE83C
:1013D0000F00FFF72CFF10B1642102200FE00DF188
:1013E000200C9CE80F008DE80F000DF1100C9CE81C
:1013F0000F00FFF728FF0028CAD064210320FFF761
:1014000055FFC5E710B58CB0002404A800F08AF899
:101410000DF1200C9CE80F008DE80F000DF1100C71
:101420009CE80F0000F04EF958B1641CE1B20520B1
:10143000FEF7B6FF0220FFF71BFF032CE5D10CB02F
:1014400010BD0DF1200C9CE80F008DE80F000DF190
:10145000100C9CE80F00FFF7EAFE10B16421022097
:101460000FE00DF1200C9CE80F008DE80F000DF14E
:10147000100C9CE80F00FFF7E6FE0028C5D06421A1
:101480000320FFF713FFC0E700B58DB004A800F0FC
:1014900049F80DF1200C9CE80F008DE80F000DF1CC
:1014A000100C9CE80F0000F00DF9002822D10DF17E
:1014B000200C9CE80F008DE80F000DF1100C9CE84B
:1014C0000F00FFF7B4FE10B1642102200FE00DF110
:1014D000200C9CE80F008DE80F000DF1100C9CE82B
:1014E0000F00FFF7B0FE0028D0D064210320FFF7E3
:1014F000DDFECBE70DB000BD00B58DB004A800F057
:1015000011F80DF1200C9CE80F008DE80F000DF193
:10151000100C9CE80F00FFF76CFA0028EED00DB01D
:1015200000BD000070B5174D04464FF480512846A9
:10153000FFF7A8F820604FF400412846FFF7A2F813
:10154000114D606008212846FFF79CF8A06010212B
:101550002846FFF797F8E06020212846FFF792F829
:101560002061A9152846FFF78DF8606169152846A6
:10157000FFF788F8A06169140448FFF783F8E06179
:1015800070BD000000080140000C01400010014047
:10159000C4210807FFF7F4BD10B5FEF752FEFFF7B0
:1015A000B5FA1420FFF758FEFEF75EFEFFF7F0FFD6
:1015B000FFF731FA00210846FEF7F2FEFEF762FE61
:1015C00004461420FFF748FE012C09D0022CF5D167
:1015D000FFF790FA03210020FEF7E2FE002010BD85
:1015E000FFF736FAF6E700002DE9F041054600F076
:1015F00052F9884604464FF0FF3200F07DFB00F0C0
:101600001BF9FFF729FB6842054600F044F90D4F2E
:101610004FF0663632463B4600F054F900F00CF9C4
:10162000FFF70AFC2046414632463B4600F04AF9A5
:1016300000F002F9FFF760FB2846BDE8F041FFF734
:10164000ABBB00006666E63F00B58DB004A8FFF7AF
:1016500069FF0DF1200C9CE80F008DE80F000DF1E3
:10166000100C9CE80F00FFF7C4F90028EED000F042
:101670000DF8FFF78DFF0120FFF7FAFDFFF7CBF91B
:101680000DB000BDC2214807FFF77ABD10B500209C
:10169000FFF7E2FA0020FFF7CFFB0020FFF72CFB5B
:1016A000BDE810400020FFF777BBDDE90210019A8A
:1016B000012803D1012901D1012A01D0002070475E
:1016C00001207047012803D1012901D1012A01D04D
:1016D000002070470120704710B591EA030F48BF02
:1016E00083F0004300F1F481841A71EB030C05D2FE
:1016F000121943EB0C03001B61EB0C01DFF824E132
:101700004FEA1154A4EB135C1EEA430F18BF9EEA84
:10171000445F73D023EA0E03DCF1200E21EA04516A
:1017200043F4801332D322FA0CFE10EB0E0023FA9E
:101730000CFE41EB0E01CCF1200E03FA0EFE10EB75
:101740000E0051F10001B1F5801FCCF1200E32D214
:1017500001EB045112FA0EF2BDE8104058BF704779
:10176000401C38BF5FEA420218BF7047002814BF10
:1017700020F0010041F100014FEA410313F5001F81
:1017800038BF7047A1F1C04100F094B9012A43EB82
:101790000302ACF1200CDCF11F0E32BF4FF0000E43
:1017A00023FA0CF310EB030041EB0451B4EB115F8F
:1017B000D0D0A1EB045101F5801149085FEA300057
:1017C00001EB04510ED350F1000038BF12FA0EFEA7
:1017D00008D1BDE81040C9E7401C38BF5FEA4202AB
:1017E000CAD1C3E7BDE810404FEA410313F5001F1B
:1017F00038BF7047A1F1C04100F05CB99EEA445F78
:1018000008D011EA5E0FBDE8104004BF01F00041AE
:1018100000207047BDE8104070B500F0FDF800BF33
:1018200064FBBE3E0000E0FF02494FF0000000F004
:1018300031BA00BF0000F87F4FEA41034FEA53532B
:10184000A3F58063D3F11E03C8BFD3F1210C0CDDD7
:101850004FF0004242EAC12242EA505232FA03FCFF
:101860008CEAE17CACEBE1707047102BC4BF002028
:10187000704703F5787CBCF1FF3F04D06FF0004265
:1018800082EA2100704770B500F0C6F849922480C2
:1018900000207047F2E710F0004248BF4042B0FA23
:1018A00080F310FA03F10AD0C3F11D0303F580633E
:1018B0004FEA415002EB035202EBD12170474FF047
:1018C00000007047DFF848C170B51CEA111E1EBF4A
:1018D0001CEA13159EEA0C0F95EA0C0F00F06F80BE
:1018E00081EA030423EA4C134EEAD47E21EA4C1128
:1018F00041F4801143F48013AE44A1FB024CA0FBE1
:101900000365AEF17F7E361955EB0C05A1FB034C48
:101910004CF10003A0FB021C16EB0C06654153F1D1
:101920000003094218BF46F0010613F4007F0BD1F3
:101930004FEA03314FEA0530340341EA155140EADA
:1019400016506FF003020AE04FEAC3214FEAC520A8
:10195000F40241EA555140EA56506FF0020202EBA0
:101960002E4201EB025585EACE710AD05FEA440CA3
:1019700018BF24F0004450F1000041F1000120EABA
:10198000D47040F2FE7C624500D270BDA84214BF04
:101990004FF080444FF04044002E08BF0024BEF1B9
:1019A000806FA8BFA1F1C041BDE8704080F2828085
:1019B0004FF0000001F1C04101F0004170479EEA84
:1019C0000C0F0CEA131518BF95EA0C0F06D04FF058
:1019D000000081EA030E0EF0004170BD00F01CF81B
:1019E0008900013E00F007B800F009B84FEA430C47
:1019F0005FEA5C5C08D081EA030100F05BB84FEA63
:101A0000410C5FEA5C5CF6D14FF000000149704781
:101A10000000FF070000F87F0EF1020E2EF0030E0B
:101A20005EF8046B364205D4012A43EB030515F535
:101A3000001F12D8012841EB010C1CF5001F0CD827
:101A40000ED14FEAD17C15F5001F0CEB4C0C0CF1BC
:101A5000020C08BF4CEBD37C04E04FF0080C01E013
:101A60004FEAD37C0CEB4C0526FA05F606F0070688
:101A7000B6F1040C06D20EEB860CBDE870404CF0BB
:101A8000010C6047DFE80CF0090B02024FF0004147
:101A90004FF00000A1F5002170BD19461046012845
:101AA00051EB010418BFD4F5001484BF002001F0ED
:101AB000004170BD0808A0F500114FEA31017047E0
:101AC00010B591EA030F48BF83F000433FF50CAE19
:101AD000841A71EB030C07D212198CF0004C43EB03
:101AE0000C03001B61EB0C01DFF8A4E14FEA115479
:101AF000A4EB135C1EEA430F18BF9EEA445F00F09C
:101B0000B08023EA6E03524221EA0451C3EB6E0314
:101B100038BF5B1EDCF1200E25D322FA0CFE10EB41
:101B20000E0043FA0CFE41EB0E01CCF1200E03FA3D
:101B30000EFE10EB0E0051F10001CCF1200E29D465
:101B400012FA0EF201EB0451BDE8104058BF704785
:101B5000401C1CBFB2F1004F704700280CBF491C4D
:101B600020F00100704712EB020E43EB030218BF96
:101B70004FF0010E4EEA4202ACF1200CDCF11E0ED9
:101B800054D943FA0CFE10EB0E0051F1FF31CCF1A9
:101B90001E0ED5D50EF1010E12FA0EFE404141EB9C
:101BA000010101EB445C5FEA5C5C10D910EBDE7074
:101BB00001EB045138BFBEF1004FBDE8104018BF23
:101BC000704700280CBF491C20F00100704730D23C
:101BD0004FEAD42C11F5001124F400641BD0B1FAA3
:101BE00081F20B3AA41AA41ED2F12003914030FADC
:101BF00003F31943904001EBCC71002C01EB04512D
:101C0000BDE81040A8BF704701F1C0414FF000008F
:101C100001F000417047B0FA80F310FA03F100D1EF
:101C200010BDE41A173C4805C90AE4E701EB04516A
:101C300010BD491001EB0451BDE810404FEA3000DF
:101C400002E04FF0000170474A0008BF0042F8D0A0
:101C5000B2F5001F28BF704701F000414FF00000AF
:101C600070479EEA445F07D011EA5E0FBDE810405E
:101C700004BF002100207047BDE8104070B5FFF799
:101C8000CBFE00BF40DFF63E83F0004110467047B8
:101C90000000E0FF0CF00F03092B08BF082000F044
:101CA00059800A2B0BD0082B18BF704708BF1CF0B7
:101CB000400F0AD04FF000004FF0000170471CF0B9
:101CC000400F18BF4FF0004070471CF0100F08D0B5
:101CD00020F0704300F07F4242EAD3014FEA4370A4
:101CE000704700F0604021F07F4242EA000201F0BC
:101CF0007F4040EA727070474FF0FF0C4CF4E06C8C
:101D00001CEA11531CBF9CEA030C9445C2BFDA4283
:101D100001EB02517047002B0DD0BCF1000F0FD02A
:101D2000002A01F00041A4BF41F0E04141F07F6191
:101D30004FF00000704701F000414FF00000704785
:101D400050EA01334FF09B0C18BF4CF0806C7FF4CD
:101D50006BAD70471CF4801F11D01CF4E02F03D032
:101D60006FEACC31490070474FF04050EFF30082EA
:101D700022F0704242EA000282F3008870474FF07E
:101D8000000070473F065B4F666D7D077F6F777C75
:101D9000395E7971B41D00080000002004000000C5
:101DA00028010008B81D0008040000206406000097
:081DB0004401000810000000CE
:04000005080000ED02
:00000001FF
