:020000040800F2
:100000007806002089010008710A0008210700080D
:10001000410800086B0200089D1400080000000061
:10002000000000000000000000000000650C000857
:10003000F703000800000000D90A0008B10D00080D
:10004000A3010008A3010008A3010008A301000800
:10005000A3010008A30100082D050008A301000862
:10006000A3010008A3010008A3010008A3010008E0
:10007000A3010008A3010008A3010008A3010008D0
:10008000A3010008A3010008A3010008A3010008C0
:10009000A3010008A3010008A3010008A3010008B0
:1000A000A3010008A3010008A3010008A3010008A0
:1000B000A3010008A3010008A3010008A301000890
:1000C000A3010008A3010008A3010008A301000880
:1000D000A3010008A3010008A3010008A301000870
:1000E000A3010008A3010008A301000800F002F822
:1000F00000F03AF80AA090E8000C82448344AAF188
:100100000107DA4501D100F02FF8AFF2090EBAE885
:100110000F0013F0010F18BFFB1A43F0010318473B
:10012000B8190000D8190000103A24BF78C878C167
:10013000FAD8520724BF30C830C144BF04680C60ED
:10014000704700000023002400250026103A28BF35
:1001500078C1FBD8520728BF30C148BF0B60704739
:100160001FB51FBD10B510BD00F031F81146FFF7E7
:10017000F7FF01F0B1F900F04FF803B4FFF7F2FF19
:1001800003BC00F057F800000948804709480047C1
:10019000FEE7FEE7FEE7FEE7FEE7FEE7FEE7FEE737
:1001A000FEE7FEE704480549054A064B7047000094
:1001B000B50D0008ED00000878000020780600204A
:1001C000780200207802002070477047704775461B
:1001D00000F02CF8AE4605006946534620F00700B3
:1001E000854618B020B5FFF7DDFFBDE820404FF091
:1001F00000064FF000074FF000084FF0000B21F011
:100200000701AC46ACE8C009ACE8C009ACE8C009DD
:10021000ACE8C0098D46704710B50446AFF30080C6
:100220002046BDE81040FFF7A8BF00000048704717
:100230001800002001491820ABBEFEE7260002008E
:10024000704710B50121032000F048FC012140F661
:100250003D0000F04FFC00F0F5FA00F0CDF800F0A2
:1002600077F8BDE8104000F09BBCFEE710B5002415
:1002700004F10800C0B2002100F0A6F8641CE4B24A
:10028000082CF5D310BD00002DE9F04100F072FA02
:100290006F2000F047FA00F0A5FA2B4F0024012050
:1002A000C7F89C01D7F81C11284E254680466006E9
:1002B000040E4021304600F031FA022001F0FBF834
:1002C000C7F89C81D7F81C0108B1641CE4B2402136
:1002D000304600F021FA022001F0EDF86D1CEDB27D
:1002E000082DE4D300F066FA403C102C2AD2DFE857
:1002F00004F01F1513111D0F0D0B23270825211BBB
:1003000019170020BDE8F0810120FBE70220F9E782
:100310000320F7E70420F5E70520F3E70620F1E7DF
:100320000720EFE70820EDE70920EBE70A20E9E7DF
:100330000B20E7E70C20E5E70D20E3E70E20E1E7DF
:100340000F20DFE71020DDE700802142000C014094
:1003500038B514208DF8030003208DF80200C0206A
:100360000D4CADF800006946204600F05BF94021D5
:10037000204600F0D3F98021204600F0CFF901207B
:1003800001F08DF80021072000F01EF80321042061
:1003900000F01AF838BD0000000C0140C0F10B005D
:1003A000C21700EB527222F00702801A054B01F0CF
:1003B0000F0201F080019A5C08301144C9B2C0B24A
:1003C00000F002B8C81A000870B50D46044600F0E7
:1003D000D1F904F00F00602141EA400000F0A2F9D9
:1003E00000F000FA284600F09DF900F0FBF9BDE8A6
:1003F000704000F0DFB970472DE9F843012147480C
:1004000000F05EF904248DF80340A002ADF800006E
:10041000434F03258DF802506946384600F002F933
:100420008DF803406603ADF800608DF80250694610
:10043000384600F0F7F88DF803400820ADF80000CA
:10044000DFF8E0808DF802506946404600F0EAF897
:100450008DF803401020ADF800008DF80250694679
:10046000404600F0DFF88DF803402020ADF8000092
:100470008DF802506946404600F0D4F88DF80340EC
:10048000A001ADF800008DF802506946404600F02A
:10049000C9F88DF80340E001ADF800008DF8025076
:1004A0006946404600F0BEF88DF80340E002ADF822
:1004B00000001D4F8DF802506946384600F0B2F832
:1004C0008DF803402003ADF800008DF80250694616
:1004D000384600F0A7F88DF80340ADF800608DF8BD
:1004E00002506946384600F09DF88DF803406002DE
:1004F000ADF800008DF802506946404600F092F8D1
:100500008DF803402002ADF800008DF802506946D6
:10051000404600F087F8BDE8F88300000002300094
:1005200000080140000C01400010014010B50120FE
:1005300000F01CF8012811D184070021204600F0AA
:10054000D5FC0021204600F091FE0121204600F05C
:10055000CDFCBDE81040012000F002B810BD000045
:10056000014908607047000014040140064A014632
:1005700000201268044B0A4014331B680B4202D05F
:10058000002A00D0012070470004014030B51A4A0B
:100590008379016853B313688B431360111D0B6893
:1005A0000468A3430B60017911440B68046823437A
:1005B0000B60114B083319680468A14319601C1DB6
:1005C00021680568A94321604179102905D01144AB
:1005D0000A68006802430A6030BD19680268114366
:1005E0001960216800680143216030BD0079104422
:1005F00002688A43026030BD0004014010B58A07DA
:1006000021F003040649120F21440F238C68934004
:100610009C438C608B68904003438B6010BD00004E
:1006200000000140F0B5CC78002204F00F03E4068E
:1006300001D58C7823430C784FF00F0C14F0FF0F8A
:100640004FF0010E1BD005680E880EFA02F426400A
:10065000A64210D196000CFA06F725EA070703FA1E
:1006600006F5CE783D43282E02D0482E02D002E077
:10067000446100E00461521C082AE5D305600A8841
:10068000FF2A1CD94468002202F108060EFA06F57A
:100690000E882E40AE420ED196000CFA06F7BC43EF
:1006A00003FA06F7CE783C43282E00D14561CE7878
:1006B000482E00D10561521C082AE5D34460F0BDE4
:1006C000F0B5144C002801DAE36900E06368450DD9
:1006D0002E0185B2C0F30157B540C0F30342032F8A
:1006E00005D0C6020AD503269640B34307E023F09F
:1006F0007062636823F07063636002E0AB4343F0B1
:10070000706201B12A43002801DAE261F0BD626043
:10071000F0BD000000000140416170470161704779
:10072000FEE7000070B5124E0546002428064FF083
:100730008001304602D5FFF7F1FF01E0FFF7ECFF43
:10074000022000F0B8FE40213046FFF7E7FF02200C
:1007500000F0B1FE40213046FFF7DEFF022000F03E
:10076000AAFE6806641C050EE4B2082CDED370BD38
:10077000000C014010B50E4C80212046FFF7CEFF43
:1007800040212046FFF7CAFF022000F094FE80219E
:100790002046FFF7C1FF022000F08DFE40212046D9
:1007A000FFF7BAFFBDE81040022000F084BE000051
:1007B000000C014010B50A4C80212046FFF7ACFF29
:1007C00040212046FFF7AAFF022000F074FE80219E
:1007D0002046FFF7A3FFBDE81040022000F06BBEEB
:1007E000000C01402DE9F041134D0126C5F89C6134
:1007F000D5F81C01022000F05EFE104F4021384663
:10080000FFF78CFF022000F056FE0024C5F89C6123
:10081000D5F81C0130B1022000F04DFE641CE4B29A
:10082000FA2CF3D340213846FFF776FFBDE8F041BC
:10083000022000F040BE000000802142000C014078
:10084000FEE700002DE9F04188B001218348FFF761
:1008500037FF10258DF803502E02DFF80482ADF823
:10086000006003248DF8024069464046FFF7DAFE37
:1008700031464046FFF752FF8DF803506E02ADF847
:1008800000608DF8024069464046FFF7CBFE3146D6
:100890004046FFF743FF8DF80350AE02ADF800600D
:1008A0008DF8024069464046FFF7BCFE314640469F
:1008B000FFF734FF8DF80350ED02ADF800508DF8CE
:1008C000024069464046FFF7ADFE29464046FFF725
:1008D00025FF4020ADF800001825624F8DF8035029
:1008E0008DF8024069463846FFF79CFE8020ADF83F
:1008F00000008DF803508DF8024069463846FFF736
:1009000091FE0126ADF800608DF803508DF802408D
:1009100069464046FFF786FE0220ADF800008DF8DC
:1009200003508DF8024069464046FFF77BFE3002D7
:10093000ADF800008DF803508DF802406946384646
:10094000FFF770FE7002ADF800008DF803508DF8CF
:10095000024069463846FFF765FEB002ADF8000078
:100960008DF803508DF8024069463846FFF75AFE6D
:10097000F002ADF800008DF803508DF80240694692
:100980003846FFF74FFE40F2E7300024ADF818007C
:10099000354DADF81440ADF81A40ADF8164005A934
:1009A000284600F08DFC314F05A9384600F088FC40
:1009B0007020ADF80400ADF80660ADF80C4001A958
:1009C000284600F03FFB01A9284600F081FB01A961
:1009D000284600F0C7FB01A9284600F007FC01A942
:1009E000384600F02FFB01A9384600F071FB01A941
:1009F000384600F0B7FB01A9384600F0F7FB0821A4
:100A0000284600F05FFB0821284600F0A1FB0821E2
:100A1000284600F0E5FB0821284600F019FC0821D3
:100A2000384600F04FFB0821384600F091FB0821C2
:100A3000384600F0D5FB0821384600F009FC0121BA
:100A4000284600F05DFA0121284600F04FFA012106
:100A5000384600F04BFA08B0BDE8F08140001600BF
:100A6000000C014000080140002C0140000400403F
:100A70007047000030B50F23C27801780125F2B12C
:100A8000144A126801F1E02102F4E062C2F5E0626A
:100A9000120AC2F10404D3404278A24084781C4078
:100AA0001443220181F80024007800F01F018D40DA
:100AB0004009800000F1E020C0F8005130BD01F095
:100AC0001F0085404809800000F1E020C0F88051F7
:100AD00030BD00000CED00E070470000044A002922
:100AE000D16901D0014300E08143D161704700002A
:100AF00000100240044A0029916901D0014300E03E
:100B000081439161704700000010024030B5204AD7
:100B10005168204B11F00C0103D0042901D00829A1
:100B200001D0036012E05168536801F470114FF076
:100B3000020413F4803F04EB914102D053689B03FD
:100B400001D5154B00E0134B5943016051680F2349
:100B500003EA1111114B5C5C0168E140416054688B
:100B6000072505EA14241C5D21FA04F48460546806
:100B700005EAD4241B5DD940C1605268032303EA0F
:100B80009232064B1B1F9A5CB1FBF2F1016130BD42
:100B90000010024000127A0000093D00040000200D
:100BA000F0B501218BB00846FFF798FF48208DF87B
:100BB000270003208DF826000720ADF8240009A99E
:100BC0002748FFF72FFD00210846FFF717FD0024F7
:100BD0008DF81C40082601258DF81D608DF81E50EB
:100BE00006A80695FFF7D2FC8DF823508DF821500A
:100BF0008DF8224006208DF8200008A8FFF73AFF64
:100C0000ADF812404FF6FF70ADF81000ADF80E4091
:100C10004720ADF80C00AF078DF8144003A9384603
:100C200000F04EFB0220ADF80200ADF80640ADF832
:100C30000840ADF80450ADF800406946384600F071
:100C40006BF90420ADF800006946384600F064F9FD
:100C5000ADF800606946384600F05EF90BB0F0BDB3
:100C600000080140704700000CB5002226480092A1
:100C70000192016841F4803101604FF4A063016882
:100C800001F4003101910099491C0091019911B9B9
:100C900000999942F3D10168890333D5012101916B
:100CA0001A490A6842F010020A600A6822F0030238
:100CB0000A600A6842F002020A60416841604168C5
:100CC0004160416841F480614160416821F47C11D8
:100CD0004160416841F4E8114160016841F0807170
:100CE000016001688901FCD5416821F00301416080
:100CF000416841F0020141604168C1F3810102296C
:100D0000FAD10CBD01920CBD00100240002002403F
:100D10002DE9F0414FF43471204E214FDFF88480EB
:100D2000214C4FF47A75884201DD084607E01F49DF
:100D3000884201DA084618E0002814D015DD00F0DA
:100D4000C4FC32463B4600F0D7FC0022434600F08C
:100D5000E5FB00F08BFCC0F57A7081B2204600F014
:100D600081FA294615E02946F8E700F0AEFC324644
:100D70003B4600F0C1FC0022434600F0BBFD00F002
:100D800075FC06462946204600F06CFA06F57A7690
:100D9000B1B22046BDE8F04100F066BA9A9999993F
:100DA0009999E93F008071400004004030FDFFFF49
:100DB000704700000F4810B5016841F00101016063
:100DC00041680D4A1140416001680C4A11400160C0
:100DD000016821F480210160416821F4FE01416035
:100DE0004FF41F018160FFF73FFF05494FF000609E
:100DF000086010BD001002400000FFF8FFFFF6FE83
:100E000008ED00E070B5048C24F001040484058B27
:100E1000048C4FF6FF7606EA0313134325F0F3051F
:100E20000E4A2B4390420ED00D4A90420BD0B0F1A7
:100E3000804F08D00B4A904205D00B4A904202D016
:100E40000A4A904202D124F0020201E024F00A0290
:100E50000A4342F001010383018470BD002C01406C
:100E6000003401400004004000080040000C004035
:100E7000F0B5048C24F010040484078B048C4FF626
:100E8000FF7527F4734705EA03333B4305EA022263
:100E90001A43114B05EA011698420ED00F4B9842A7
:100EA0000BD0B0F1804F08D00D4B984205D00D4BC0
:100EB000984202D00C4B984205D124F020013143D6
:100EC00041F0100104E024F0A0030B4343F01001B3
:100ED00002830184F0BD0000002C01400034014079
:100EE0000004004000080040000C00400029018878
:100EF00002D041F0010101E021F0010101807047C1
:100F0000002930F8441F02D041F4004101E0C1F350
:100F10000E010180704700002DE9F84F0D46044690
:100F20000888434FDFF80CC1DFF80C81DFF80C9123
:100F30004988AA882B894FF0804A48B3042830D0CA
:100F40004FF6FF760828934634D0208C9E4620F436
:100F500080502084A38B208C06EA0132009223F477
:100F6000734306EA0B221A4306EA0E331343BC42CC
:100F70000AD0644508D0544506D0444504D04C45B9
:100F800002D02F4A944245D120F40050009943E00A
:100F90002046FFF737FFE9882046BDE8F84F00F00C
:100FA00067B92046FFF764FFE9882046BDE8F84F9F
:100FB00000F066B9208C20F480702084B4F81CE026
:100FC000208C06EA031306EA01222EF0F30E43EA10
:100FD0000B0343EA0E030092BC420AD0644508D0DA
:100FE000544506D0444504D04C4502D0144A94429E
:100FF00003D120F40070009901E020F42060084340
:1010000040F48070A3832084E9882046BDE8F84F2F
:1010100000F042B920F40240084340F48050A3831A
:101020002084E9882046BDE8F84F00F03DB9000073
:10103000002C014000340140000400400008004042
:10104000000C004030B5028C22F001020284028CB8
:101050008388048B22F0020224F073050C882C4351
:101060000D8915434A882A43114DA8420BD0114DD2
:10107000A84208D0104DA84205D0104DA84202D079
:101080000F4DA8420DD122F008054A8923F4407380
:101090002A4322F004058A882A438D891D43CB897F
:1010A0002B4383800483C9888186028430BD00007D
:1010B000002C014000340140004001400044014048
:1010C00000480140028B22F008020A430283704765
:1010D00070B5028C22F010020284028C8388048B8B
:1010E0000D8824F4E6464FF6FF7404EA05253543DF
:1010F0000E8922F0200204EA061616434A8804EA02
:1011000002123243104EB04202D0104EB04215D1FE
:1011100022F080064A8923F4406304EA0212324333
:1011200022F040068A8804EA021232438E8904EAD9
:1011300086061E43CB8904EA8303334383800583F9
:10114000C9880187028470BD002C01400034014031
:10115000028B4FF6FF7322F4006203EA0121114370
:101160000183704770B5028C22F480720284028C75
:101170008388848B0D8824F0730425430E894FF6F1
:10118000FF7422F4007204EA062616434A8804EA31
:1011900002223243104EB04202D0104EB04215D15E
:1011A00022F400664A8923F4405304EA02223243BF
:1011B00022F480668A8804EA022232438E8904EA95
:1011C00006161E43CB8904EA0313334383808583C9
:1011D000C9888187028470BD002C01400034014021
:1011E000828B22F008020A438283704770B5028C1A
:1011F00022F480520284058C8288838B0C8823F42D
:10120000E6464FF6FF7303EA0424344325F4005600
:101210000D8903EA053535434E8803EA06362E4329
:10122000094DA84202D0094DA84205D122F48045BB
:101230008A8903EA82122A4382808483C988A0F8BB
:101240004010068470BD0000002C014000340140B5
:10125000828B4FF6FF7322F4006203EA01211143EF
:10126000818370478186704701877047818470470A
:10127000028B22F00C020283028B0A430283704726
:10128000028B22F440620283028B4FF6FF7303EA63
:1012900001210A4302837047828B22F00C02828371
:1012A000828B0A4382837047828B22F4406282835E
:1012B000828B4FF6FF7303EA01210A438283704752
:1012C00030B502881B4C1C4DA0420DD0A8420BD05B
:1012D000B0F1804F08D0194B984205D0184B984276
:1012E00002D0184B984203D122F070034A881A4367
:1012F000154B984206D0154B984203D022F4407308
:10130000CA881A4302808A8882850A880285A04298
:101310000AD0A84208D00E4A904205D00D4A904209
:1013200002D00D4A904201D1097A018601218182C1
:1013300030BD0000002C014000340140000400409A
:1013400000080040000C0040001000400014004065
:1013500000400140004401400048014010B5012117
:1013600086B08803FFF7C6FB01210820FFF7C2FB08
:101370004020ADF8100018208DF813000320154C04
:101380008DF8120004A92046FFF74CF98021ADF832
:10139000101004218DF8131004A92046FFF742F91C
:1013A0004FF4165000900020ADF80800ADF804008E
:1013B0000C21094CADF80600ADF80A10ADF80C0090
:1013C0006946204600F014F80121204600F006F896
:1013D00006B010BD000C0140003801400029818991
:1013E00002D041F4005101E021F4005181817047A5
:1013F00030B50446008A85B00D464CF6FF710840B2
:10140000E98801432182A0894EF6F3110840A9889A
:101410002A8911436A8902431143A181A08A4FF6A8
:10142000FF410840A9890143A1826846FFF76EFB8E
:101430001948844201D1039800E00298A189090467
:1014400000EBC00101EB0010296801D5490000E064
:101450008900B0FBF1F06422B0FBF2F109010B0945
:101460006FF018056B4300EB8300A3891D044FF058
:10147000320306D503EBC000B0FBF2F000F007002A
:1014800005E003EB0010B0FBF2F000F00F000843A2
:10149000208105B030BD000000380140FEE710B5E6
:1014A00003464FF47A7402E0204600F004F85B1E15
:1014B0009BB2F9D210BD00EBC000C1004FF0E0209C
:1014C000416100228261052101610169C903FCD5E6
:1014D0008261042101617047FEF7B3FEFEF738FF19
:1014E0001420FFF7DCFF01210846FEF757FF4FF4F9
:1014F000FA60FFF7D4FFFEF7B9FEFFF72FFF064CA7
:10150000FEF7C2FE014620600120FEF747FFC8201B
:10151000FFF7FEFBF4E700001400002010B591EA8D
:10152000030F48BF83F0004300F1EC81841A71EB94
:10153000030C05D2121943EB0C03001B61EB0C01E9
:10154000DFF824E14FEA1154A4EB135C1EEA430FC9
:1015500018BF9EEA445F73D023EA0E03DCF1200E2D
:1015600021EA045143F4801332D322FA0CFE10EB2B
:101570000E0023FA0CFE41EB0E01CCF1200E03FA13
:101580000EFE10EB0E0051F10001B1F5801FCCF101
:10159000200E32D201EB045112FA0EF2BDE81040D7
:1015A00058BF7047401C38BF5FEA420218BF7047FF
:1015B000002814BF20F0010041F100014FEA41036F
:1015C00013F5001F38BF7047A1F1C04100F08CB97E
:1015D000012A43EB0302ACF1200CDCF11F0E32BFF9
:1015E0004FF0000E23FA0CF310EB030041EB045113
:1015F000B4EB115FD0D0A1EB045101F58011490883
:101600005FEA300001EB04510ED350F1000038BF07
:1016100012FA0EFE08D1BDE81040C9E7401C38BFE1
:101620005FEA4202CAD1C3E7BDE810404FEA410376
:1016300013F5001F38BF7047A1F1C04100F054B945
:101640009EEA445F08D011EA5E0FBDE8104004BF77
:1016500001F0004100207047BDE8104070B500F077
:10166000F5F800BF64FBBE3E0000E0FF4FEA410317
:101670004FEA5353A3F58063D3F11E03C8BFD3F1E0
:10168000210C0CDD4FF0004242EAC12242EA5052E6
:1016900032FA03FC8CEAE17CACEBE1707047102B72
:1016A000C4BF0020704703F5787CBCF1FF3F04D035
:1016B0006FF0004282EA2100704770B500F0C6F872
:1016C0004992248000207047F2E710F0004248BFA2
:1016D0004042B0FA80F310FA03F10AD0C3F11D03BF
:1016E00003F580634FEA415002EB035202EBD12134
:1016F00070474FF000007047DFF848C170B51CEA32
:10170000111E1EBF1CEA13159EEA0C0F95EA0C0F62
:1017100000F06F8081EA030423EA4C134EEAD47E82
:1017200021EA4C1141F4801143F48013AE44A1FB33
:10173000024CA0FB0365AEF17F7E361955EB0C051C
:10174000A1FB034C4CF10003A0FB021C16EB0C06A2
:10175000654153F10003094218BF46F0010613F436
:10176000007F0BD14FEA03314FEA0530340341EAE1
:10177000155140EA16506FF003020AE04FEAC32108
:101780004FEAC520F40241EA555140EA56506FF045
:10179000020202EB2E4201EB025585EACE710AD01D
:1017A0005FEA440C18BF24F0004450F1000041F1FE
:1017B000000120EAD47040F2FE7C624500D270BD88
:1017C000A84214BF4FF080444FF04044002E08BFA1
:1017D0000024BEF1806FA8BFA1F1C041BDE87040F8
:1017E00080F282804FF0000001F1C04101F0004121
:1017F00070479EEA0C0F0CEA131518BF95EA0C0F00
:1018000006D04FF0000081EA030E0EF0004170BDDB
:1018100000F01CF88900013E00F007B800F009B89C
:101820004FEA430C5FEA5C5C08D081EA030100F0F8
:101830005BB84FEA410C5FEA5C5CF6D14FF0000008
:10184000014970470000FF070000F87F0EF1020E0B
:101850002EF0030E5EF8046B364205D4012A43EBEA
:10186000030515F5001F12D8012841EB010C1CF5EA
:10187000001F0CD80ED14FEAD17C15F5001F0CEBE0
:101880004C0C0CF1020C08BF4CEBD37C04E04FF085
:10189000080C01E04FEAD37C0CEB4C0526FA05F668
:1018A00006F00706B6F1040C06D20EEB860CBDE876
:1018B00070404CF0010C6047DFE80CF0090B0202AD
:1018C0004FF000414FF00000A1F5002170BD194616
:1018D0001046012851EB010418BFD4F5001484BF51
:1018E000002001F0004170BD0808A0F500114FEA8A
:1018F0003101704710B591EA030F48BF83F00043F0
:101900003FF514AE841A71EB030C07D212198CF058
:10191000004C43EB0C03001B61EB0C01DFF8A4E16E
:101920004FEA1154A4EB135C1EEA430F18BF9EEA62
:10193000445F00F0B08023EA6E03524221EA045172
:10194000C3EB6E0338BF5B1EDCF1200E25D322FAF9
:101950000CFE10EB0E0043FA0CFE41EB0E01CCF135
:10196000200E03FA0EFE10EB0E0051F10001CCF137
:10197000200E29D412FA0EF201EB0451BDE81040FA
:1019800058BF7047401C1CBFB2F1004F7047002881
:101990000CBF491C20F00100704712EB020E43EB14
:1019A000030218BF4FF0010E4EEA4202ACF1200CC8
:1019B000DCF11E0E54D943FA0CFE10EB0E0051F16F
:1019C000FF31CCF11E0ED5D50EF1010E12FA0EFE2E
:1019D000404141EB010101EB445C5FEA5C5C10D9E2
:1019E00010EBDE7001EB045138BFBEF1004FBDE8D3
:1019F000104018BF704700280CBF491C20F00100A0
:101A0000704730D24FEAD42C11F5001124F4006451
:101A10001BD0B1FA81F20B3AA41AA41ED2F1200312
:101A2000914030FA03F31943904001EBCC71002C44
:101A300001EB0451BDE81040A8BF704701F1C0415F
:101A40004FF0000001F000417047B0FA80F310FA47
:101A500003F100D110BDE41A173C4805C90AE4E7B8
:101A600001EB045110BD491001EB0451BDE81040D9
:101A70004FEA300002E04FF0000170474A0008BF13
:101A80000042F8D0B2F5001F28BF704701F00041B6
:101A90004FF0000070479EEA445F07D011EA5E0FE6
:101AA000BDE8104004BF002100207047BDE8104091
:101AB00070B5FFF7CBFE00BF40DFF63E83F000417C
:101AC000104670470000E0FF3F065B4F666D7D07E4
:101AD0007F6F777C395E7971F81A0008000000206A
:101AE0001800000028010008101B00081800002042
:101AF000600600004401000802040608000000001F
:101B000001020304010203040607080900000000A3
:04000005080000ED02
:00000001FF
